:020000040000FA
:1000000000000320DD040000F5040000FD60000096
:10001000F9040000FB040000FD04000000000000E3
:1000200000000000000000000000000025040000A7
:100030000105000000000000790400005174000078
:10004000E14D00000B0500000F0500001305000046
:10005000170500001B0500001F0500002305000018
:10006000270500002B0500002F05000033050000C8
:10007000370500003B0500003F0500004305000078
:10008000470500009B0500009B0500009B05000044
:100090009B0500009B0500009B0500009B050000E0
:1000A0004B0500004F0500005305000057050000F8
:1000B0005B0500005F0500009B0500006305000074
:1000C00067050000657600002976000073050000D2
:1000D000770500007B0500007F050000CD200000B3
:1000E0009B0500009B050000815A0000CD5A0000CE
:1000F0009B0500009B0500009B0500009B05000080
:100100009B0500009B0500009B0500009B0500006F
:100110005D6B00009B0500009B0500009B05000037
:100120009B0500009B0500009B0500009B0500004F
:100130008D6C00009B0500009B0500009B050000E6
:100140009B05000083050000870500008B0500006B
:100150008F050000930500009B0500009B05000033
:100160009B0500009B050000970500009B05000013
:100170009B0500009B0500009B0500009B050000FF
:100180009B0500009B0500009B0500009B050000EF
:100190009B0500009B0500009B0500009B050000DF
:1001A0009B0500009B0500009B0500009B050000CF
:1003F0009B0500009B0500009B050000FFFFFFFF21
:10040000FFFFFFFFFFFFFFFFFFFFFFFFFEFFFFFFFD
:10041000DFF80CD000F09AFC00480047519F000024
:10042000000003202A4B19680868B0E8F04F80F3F9
:100430000988BFF36F8F4FF0000080F31188704779
:100440000000000006480068006880F3088862B673
:1004500061B6BFF34F8FBFF36F8F00DF00BF00BFE8
:1004600008ED00E0DFF80C00016841F47001016064
:10047000704700BF88ED00E0EFF30980BFF36F8F96
:10048000134B1A681EF0100F08BF20ED108A20E9E8
:10049000F04F106008B44FF0200080F31188BFF3D4
:1004A0004F8FBFF36F8F0AF08BFF4FF0000080F388
:1004B000118808BC19680868B0E8F04F1EF0100FEA
:1004C00008BFB0EC108A80F30988BFF36F8F7047C4
:1004D0006400FF1FEFF305807047000072B63048DC
:1004E000304901600A6882F308882F48804762B665
:1004F0002E480047FEE7FEE7FEE7FEE7FEE7FEE7E1
:10050000FEE7FEE7FEE72A4800472A4800472A4858
:1005100000472A4800472A4800472A4800472A48F7
:1005200000472A4800472A4800472A4800472A48E7
:1005300000472A4800472A4800472A4800472A48D7
:1005400000472A4800472A4800472A4800472A48C7
:1005500000472A4800472A4800472A4800472A48B7
:1005600000472A4800472A4800472A4800472A48A7
:1005700000472A4800472A4800472A4800472A4897
:1005800000472A4800472A4800472A4800472A4887
:1005900000472A4800472A4800472A4800470000E9
:1005A00008ED00E000000000857400001104000068
:1005B000C14D0000B14E0000D14E0000F14E0000D0
:1005C000114F0000314F0000514F0000714F0000EB
:1005D000914F0000B14F0000F14D0000114E00009E
:1005E000314E0000514E0000714E0000914E00004F
:1005F0009B0500001D61000035610000BD72000018
:10060000D5720000D9610000AD610000E575000001
:100610009B0500004D7600009B050000ED76000074
:100620009B050000317700009B050000ED72000083
:10063000757700009B050000B97700009B0500005E
:100640004D6100009B05000040EA01039B0703D0B9
:1006500009E008C9121F08C0042AFAD203E011F801
:10066000013B00F8013B521EF9D27047D2B201E0C3
:1006700000F8012B491EFBD270470022F6E710B5A7
:1006800013460A4604461946FFF7F0FF204610BD00
:10069000034611F8012B00F8012B002AF9D1184666
:1006A00070472DE9FE4F81EA030404F0004421F075
:1006B000004100944FF0000B23F0004350EA010486
:1006C0005ED052EA03045BD0C3F30A54C1F30A5567
:1006D0002C44A4F2F3340194A0FB0254C1F313019F
:1006E00041F48011C3F3130343F4801301FB02446C
:1006F00000FB034E840A970A44EA815447EA835771
:10070000A4FB076802958D0A05FB07854FEA932C29
:1007100004FB0C542705029D4FEA065847EA16379A
:10072000B5EB08056EEB070C870E920E47EA8117B2
:1007300042EA8312A7FB0201B6EB0B0164EB000453
:100740002B0D43EA0C335E1844EB1C50DA4651463D
:10075000E7FB0201C5F313044FEA0B3343EA1453DA
:100760004FEA0432019C43EA0603A4F10C0402940C
:10077000009CCDE900B400F0CFF803B0BDE8F08FE5
:1007800000200146F9E70EB540F233410291002105
:10079000CDE900110A460B4600F0BEF803B000BDDB
:1007A00000F0004230F000400AD0C10D01F5607148
:1007B000C0F3160042EA0151C208400711437047D6
:1007C00000200146704701F0004330B421F00041A1
:1007D00050EA010206D00A0DA2F56072C1F31301BE
:1007E000002A02DC30BC00207047440F44EAC104F8
:1007F000C100E01830BC00EBC25000F047B830B583
:100800000B46014600202022012409E021FA02F5CE
:100810009D4205D303FA02F5491B04FA02F5284468
:10082000151EA2F10102F1DC30BD2DE9F05F054695
:10083000002092469B4688460646814640241BE09F
:10084000284641464746224600F0A1FA53465A46FA
:10085000C01A914110D311461846224600F088FA7A
:100860002D1A67EB01084F4622460120002100F0B7
:100870007FFA17EB00094E41201EA4F10104DFDCD2
:10088000484631462A464346BDE8F09F0029A8BFA6
:100890007047401C490008BF20F00100704710B4A9
:1008A000B0FA80FC00FA0CF050EA010404BF10BC5E
:1008B000704749B1CCF1200421FA04F411FA0CF18B
:1008C00018BF012121430843A3EB0C01CB1D4FEAC4
:1008D00000614FEA102042BF002010BC704700EBBF
:1008E000C35010440029A4BF10BC7047401C4900ED
:1008F00008BF20F0010010BC704710B5141E73F142
:10090000000408DA401C41F1000192185B411A43CF
:1009100001D120F0010010BD2DE9F04D92469B461B
:1009200011B1B1FA81F202E0B0FA80F220329046C1
:1009300000F01EFA04460F4640EA0A0041EA0B01A5
:1009400053465A46084313D0114653EA010019D0C2
:10095000C8F14002504600F01AFA05460E465046CD
:100960005946424600F004FA084305D0012004E04D
:1009700020463946BDE8F08D0020054346EAE07682
:100980002C4337430A986305E40AA0EB08000022D1
:10099000FD0A44EA47540A3002D500200146E9E73F
:1009A000010510196941DDE9084500196941BDE8F3
:1009B000F04DA2E72DE9FE4F804681EA0300C00F0B
:1009C0000C46009021F0004123F00045B8EB0200F6
:1009D000A94105D24046214690461C460B46024698
:1009E00023F00040104347D0270DC7F30A00C3F39C
:1009F0000A510290401A019040286BDAC3F31300A9
:100A000040F4801B0098924620B10023D2EB030AE9
:100A100063EB0B0B01985946C0F14002504600F0C1
:100A2000A7F906460D4650465946019A00F0BFF90F
:100A300010EB08006141002487EA115284EAE77351
:100A40001A4340D0009A62B3019A012A4FEA075232
:100A500015DC001B61EB02014FF0004202EA075275
:100A6000CDE90042001C41F5801132462B46FFF7CC
:100A700053FF03B0BDE8F08F40462146F9E7001B65
:100A800061EB0201001C41F5801300185B41201846
:100A9000A2F5001747EB030140EAD570B6196D4186
:100AA00011E06D084FEA360645EAC0754FEA075275
:100AB000001B61EB0201001C41F5801149084FEA5F
:100AC00030000019514132462B4603B0BDE8F04FCB
:100AD000FFF713BF0098012240000023D0EB020271
:100AE00063EBE073009821464FEAE074B8EB000036
:100AF00061EB0401E9E783F000435BE781F000412B
:100B000058E72DE9F04D81EA030404F0004B21F091
:100B1000004514464FF0000A23F0004150EA050258
:100B200020D054EA01021DD0C5F30A570246C5F38E
:100B30001303C1F31300C1F30A5640F4801543F4C4
:100B40008013A7EB0608101BD64608F2FD3873EB9E
:100B5000050002D308F1010801E092185B41B8F1E9
:100B6000000F03DA00200146BDE8F08D00204FF4AD
:100B70008011064684460EE0171B73EB050705D36C
:100B8000121B63EB050306434CEA010C49084FEACC
:100B9000300092185B4150EA0107EDD152EA0300A0
:100BA00012D082EA040083EA0501084305D0101B35
:100BB000AB4106D20122002306E000224FF00043A1
:100BC00002E06FF0010253101AEB06004CEB0851E3
:100BD00010EB0A0041EB0B01BDE8F04DFFF78DBEB5
:100BE00070B521F0004303430CD0C1F30A55002433
:100BF000D5EB040564EB0403D617AD1AB34102DB51
:100C00000020014670BD201841EB025170BD00006C
:100C10002DE9F041054621F000400C46284309D05B
:100C2000C4F30A5040F23341884205DD284621468C
:100C3000BDE8F0812846FBE740F2FE31884210DC37
:100C40000CDB4FEA043040EA155050EA053105D07C
:100C5000104804F0004101430020E9E7002001466C
:100C6000E6E7A0F233404642C6F14002284621465C
:100C700000F07EF80746884628462146324600F0B6
:100C800086F843463A46FFF738FE3246BDE8F04163
:100C900000F06EB80000F03F0EB5C10F80EAE070C2
:100CA0000844CA07002140F233438DE80E000A468B
:100CB0000B46FFF731FE03B000BDC1F30A52C1F38A
:100CC000130140F2FF3341F480119A4202DA00200E
:100CD0000146704740F233439A42A2F2334202DCAB
:100CE000524200F054B800F043B8000030B5041E82
:100CF00071F1000404DB4FF00044404264EB010159
:100D0000141E73F1000405DB1C464FF000435242F1
:100D100063EB04038B4208BF824230BD30B5041E32
:100D200071F1000404DB4FF00044404264EB010128
:100D3000141E73F1000405DB1C464FF000435242C1
:100D400063EB0403994208BF904230BD064C074D47
:100D500006E0E06840F0010394E80700984710348B
:100D6000AC42F6D3FFF758FB3CF901006CF90100E7
:100D7000202A04DB203A00FA02F10020704791405B
:100D8000C2F1200320FA03F3194390407047202A50
:100D900004DB203A21FA02F00021704721FA02F325
:100DA000D040C2F120029140084319467047202AE2
:100DB00006DBCB17203A41FA02F043EAE07306E083
:100DC00041FA02F3D040C2F1200291400843194693
:100DD00070472DE9F04D00231A461B1A8A4103DBA8
:100DE00000200146BDE8F08DC1F30A52C1F31301A2
:100DF00041F480154FF0000BD10702D100186D416E
:100E0000521E0027044640F2FF11384601EB620AE9
:100E10003E468046024600204FF48011FFF7B7FFA0
:100E2000C2197141BB1846EB0100B4EB030C75EB22
:100E3000000C04D3E41A65EB000517460E4624198E
:100E400008F101006D4180463428E3DDF91946EBD5
:100E50000600091BA84103D24FF0FF32134601E000
:100E6000002213461BEB070046EB0A51BDE8F04D8C
:100E7000FFF743BD0023B3EB920F1FD093085B42F3
:100E800090ED000A0133B0EEC00A81ED000A90ED4A
:100E9000010AB0EEC00A81ED010A90ED020AB0EE3F
:100EA000C00A81ED020A90ED030A00F11000B0EED5
:100EB000C00A81ED030A01F11001E1D112F0030231
:100EC00008BF7047524200BF90ED000A013200F1A6
:100ED0000400B0EEC00A81ED000A01F10401F3D173
:100EE00070470000B0B5E1B14FF0000C02EB4C04CC
:100EF00032F81C300CF1020C64888C4523F003039B
:100F000024F0030450F803E00559C55040F804E00C
:100F100003440444D3F804E065685D60C4F804E069
:100F2000E4D3B0BD2DE9F0410588984616460C463D
:100F30000746012A0CD1E5B3201D294690ED000A91
:100F40000139B1EE400A80ED000A00F10800F5D148
:100F5000FF2D0CDDB5F5806F10DBB5F5805F22D07D
:100F6000B5F5006F11D0B5F5806F17D021E03F2D9A
:100F700010DC102D12D0202D07D01AE0B5F5807F9F
:100F800003D0B5F5007F0ED013E03846214600F0BF
:100F900007F90EE0402D06D0802D0AD138462146B3
:100FA00000F030F805E07A6820462946012300F079
:100FB0000DFDB8F1000F04D0BA68B9892046FFF7DB
:100FC00091FF012E1CD100EE105A002DB8EE400A00
:100FD00008BFBDE8F081B7EE001A81EE000A00BF3D
:100FE00094ED001A94ED012A013D20EE011A20EE45
:100FF000422A84ED001A84ED012A04F10804EFD19D
:10100000BDE8F0812DE9F0472DED088B8046008882
:101010000023D8F8042001EB800A4FEA5009B3EB13
:10102000D00F00F0AD80C70801EB890C0AEB890EE8
:101030007C420027C8190AEB07060CEB07030EEBEE
:101040000705013496ED000A90ED004A96ED011A6D
:1010500090ED015A96ED022A90ED026A96ED033A60
:1010600090ED037AD5ED000AD5ED011AD5ED022AEF
:10107000D5ED033AD3ED004AD3ED015AD3ED026A20
:10108000D3ED037A34EE00BA37EE038A36EE029AD5
:1010900035EE01AA34EE400A35EE411A36EE422A08
:1010A00037EE433A33EEE76A32EEE67A80ED00BA85
:1010B00080ED01AA80ED029A80ED038A34EEA0BA99
:1010C00035EEA1AA37EEA38A36EEA29A02EB07000C
:1010D00071EEE51A70EEE40A07F1100783ED00BA2D
:1010E00083ED01AA83ED029A83ED038A90ED008AD5
:1010F00090ED019A20EE094A21EE085A21EE091AD4
:1011000020EE080A35EE444A30EE010A21EE891A33
:1011100020EE885A61EE881A60EE890A86ED014A4F
:1011200086ED000A35EE010A30EEE11A85ED010A7E
:1011300085ED001A90ED020A90ED031A22EE014AA5
:1011400023EE005A23EE013A22EE002A35EE444AFD
:1011500032EE032A26EE013A27EE005A26EE000A66
:1011600027EE011A86ED034A86ED022A35EE032AA0
:1011700031EE400A85ED032A85ED020A7FF45AAF6D
:1011800008464946022300F021FCD8F804205046C6
:1011900049460223BDEC088BBDE8F04700F016BCC1
:1011A0002DE9F04F81B02DED088B92B0B0F800C062
:1011B0000590406891ED000A91ED011A4FF0000989
:1011C0004FF0000B4FEA5C0206906FF001000F91A8
:1011D00001EB820300EB9C0703EB8205A9EB5700B0
:1011E0006FF0030793ED004A93ED015A95ED002A45
:1011F00095ED013A05EB8204119007EB820007EBB5
:10120000C20E6FF0070794ED007AD4ED010A07EBE8
:101210000216109031EE036A70EE021A31EE431A94
:1012200030EE420A0E9602EB420676EE052A71EE89
:10123000843A31EE442A30EE053A31EE041A30EEAB
:10124000450A36EE456A71EEC41A07EB86004FEA8E
:101250009C074FEA860A73EE873A72EEA02A32EEB6
:10126000072A33EE603A31EE471A30EE200A0D902D
:1012700001970293049597000394C1ED003AC1EDE4
:10128000012A83ED003A83ED012A31EEC73A36EEAA
:10129000602AD10085ED003A85ED012A84ED000A2F
:1012A00084ED011A0024E0E00F98089407920B9156
:1012B0005A46CB46109900EB0E0400EB01090D993C
:1012C0000A97CDF830E0CDF824A0D4ED002A14ED33
:1012D000015ADDF838A0D9ED001A59ED017A471806
:1012E0000839D7ED010A00EB0A0ED7ED006A07981E
:1012F000AAF1080ADEED014A9EED004A71EEA03A1D
:1013000037EEA69A73EEA25A75EEA45AC9ED005AAA
:1013100054ED015A9EED008A79EE255A75EE885AF1
:1013200049ED015AD9469346D3ED035A93ED028A0B
:1013300009F1080902F1180B26EE25AA27EE08BAD2
:1013400027EE257A26EE086A3BEE0AAA36EE476AB1
:1013500032EEE47A85ED02AA85ED036A31EEE06AA9
:1013600077EEE60A76EE451A70EE876A71EE841A19
:1013700066EE887A21EEA5AA66EEA55A61EE881A75
:101380007AEE677A71EEA51AC4ED007A44ED011A7F
:10139000089CD6ED051AD6ED045A103462EE216A87
:1013A00063EE257A23EE213A22EE252A77EEA66A0D
:1013B00032EE432A33EEE23ACCED026A8CED032A98
:1013C00039EE452A33EE643A32EE442A63EE653A4A
:1013D00023EE213A62EE212A22EE252A73EEE22A3A
:1013E00033EE422AC7ED012A87ED002A0A9F90EDCD
:1013F000072A90ED063A1098083760EE021A61EE5F
:10140000032A21EE021A20EE030A083872EEA11A0E
:1014100030EE410A37EE601AC8ED021A88ED030A71
:1014200034EE450A21EE034A21EE021A30EE460A56
:1014300020EE025A20EE030A35EE444A30EE010A4D
:101440008EED014A8EED000ADDF830E01090119823
:10145000AEF1080E013011900D910B99CDF838A026
:10146000DDF824A008310AF1080A0F9B119803EB5C
:10147000090203EB010CDD1903EB0A08069B0028A7
:101480009CED020A92ED022A95ED024A98ED026A5D
:101490009CED031A92ED033A95ED035A98ED037A09
:1014A00003EB040672EE000A73EE013A33EE411AC2
:1014B00032EE400A70EE841A31EE042A70EEC40A4D
:1014C00030EE453A31EE444A71EE861A33EE071A91
:1014D00030EEC63AC2ED021AD5ED031AD8ED032A52
:1014E00073EEA11A71EEA21AC2ED031A73EEC51AB9
:1014F00030EE055A32EE460A03EB0B024B4434EE53
:10150000066A31EEC72A35EE477A7FF4CDAE93ED09
:10151000024A93ED035A0F98042367EE050A66EE1C
:10152000041A26EE055A27EE044A34EE054A31EE37
:10153000E06A85ED024A85ED036A019D96ED044A55
:1015400096ED055A294623EE056A22EE047A23EE2B
:10155000043A22EE052A33EE022A37EE464A8CED93
:10156000022A8CED034A92ED062A92ED073A069A7A
:1015700021EE034A20EE025A21EE021A20EE030A5F
:1015800031EE000A35EE442A88ED020A88ED032A7E
:1015900000F01CFA059C029829460423626800F0BA
:1015A00015FA626804982946042300F00FFA62686D
:1015B00003982946042312B0BDEC088B01B0BDE8A6
:1015C000F04F00F003BA00002DE9F0412DED028B41
:1015D0000446002090460D46B0EB920F6DD04FEAC6
:1015E0009800474294ED000A94ED011A21EE011A89
:1015F00020EE000A30EE018AB0EE480A07F0A4FBA4
:10160000B4EEC00AF1EE10FA03D7B0EE480A07F0C4
:101610009BFB85ED000A94ED020A94ED031A21EE7E
:10162000011A20EE000A30EE018AB0EE480A07F0F7
:101630008BFBB4EEC00AF1EE10FA03D7B0EE480A05
:1016400007F082FB85ED010A94ED040A94ED051A7A
:1016500021EE011A20EE000A30EE018AB0EE480AAF
:1016600007F072FBB4EEC00AF1EE10FA03D7B0EE49
:10167000480A07F069FB85ED020A94ED060A94ED2D
:10168000071A21EE011A20EE000A30EE018AB0EEB0
:10169000480A07F059FBB4EEC00A05F110062034E1
:1016A000F1EE10FA03D7B0EE480A07F04DFB85EDD6
:1016B000030A0137354695D100E02E4618F00300A5
:1016C0001ED0454294ED000A94ED011A21EE011A54
:1016D00020EE000A30EE018AB0EE480A07F034FB33
:1016E000B4EEC00A371DF1EE10FA03D7B0EE480A87
:1016F00007F02AFB86ED000A083401353E46E1D1A9
:10170000BDEC028BBDE8F0819FED241AB5EE002AF6
:1017100041F238130021B7EE004AC0F2010320EE77
:10172000010A30EE020ABDEEC01AB5EEC00A11EE93
:10173000100AF1EE10FA9FED1A1AB8BF013802EE46
:10174000100AB8EEC22A30EE420A9FED162A20EEA9
:10175000010ABDEEC01A11EE100A30EE021A02465E
:10176000B1EB502F18BF002202EE102A03EB8203C8
:10177000B1EB502F18BFB0EE410AB8EE421A93ED0C
:10178000002A93ED013A30EE410A34EE401A20EE81
:10179000030A21EE021A31EE000A704783F9223E55
:1017A00000000044000000C4F0B54C1E4FF0000CD7
:1017B00090ED000A00F1040EBCEB940F40D0A70896
:1017C000012625464FF0000C66F301057E420427F2
:1017D0009EED001A9EED012A9EED023A9EED034A0F
:1017E00001360EF1100EB4EEC10AF1EE10FABCBFD4
:1017F000A7F1030CB0EE410AB4EEC20AF1EE10FA02
:10180000BCBFA7F1020CB0EE420AB4EEC30AF1EE7F
:1018100010FABCBFA7F1010CB0EE430AB4EEC40A43
:10182000F1EE10FAB4EEC40AB8BFBC460437F1EECC
:1018300010FAB8BFB0EE440A002EC9D100EB850EF5
:1018400014F0030012D040429EED001A0EF1040E77
:10185000B4EEC10AF1EE10FAB8BF01EB000C00F1D2
:101860000100B8BFB0EE410A0028EDD182ED000AB8
:10187000C3F800C0F0BD00000023B3EB910F22D0ED
:1018800080B58B089FED1C0A21F0030CC3F1000EFC
:10189000034600BF93ED001A93ED012A93ED023A3F
:1018A00093ED034A10331EF1010E30EE010A30EEC3
:1018B000020A30EE030A30EE040AEBD100EB8C0092
:1018C000BDE8804001E09FED0C0A11F0030309D050
:1018D0005B4200BF90ED001A013300F1040030EECE
:1018E000010AF7D101EE101AB8EE411A80EE010A92
:1018F00082ED000A704700BF00000000F0B54C1EEA
:101900004FF0000C90ED000A00F1040EBCEB940FB8
:1019100040D0A708012625464FF0000C66F30105CC
:101920007E4204279EED001A9EED012A9EED023AAA
:101930009EED034A01360EF1100EB4EEC10AF1EE2F
:1019400010FAC4BFA7F1030CB0EE410AB4EEC20A0C
:10195000F1EE10FAC4BFA7F1020CB0EE420AB4EEE9
:10196000C30AF1EE10FAC4BFA7F1010CB0EE430AAE
:10197000B4EEC40AF1EE10FAB4EEC40AC8BFBC4615
:101980000437F1EE10FAC8BFB0EE440A002EC9D1F8
:1019900000EB850E14F0030012D040429EED001AB9
:1019A0000EF1040EB4EEC10AF1EE10FAC8BF01EB5D
:1019B000000C00F10100C8BFB0EE410A0028EDD1D3
:1019C00082ED000AC3F800C0F0BD00002DE9F04F21
:1019D00081B02DED108BA0B09FED050ACDE903324B
:1019E0008C46019004301B910290084602E000BF33
:1019F000F304353F4FEADC064FEACC074FF0000B0B
:101A0000F30006EB860235010896A3EBDC00D1005B
:101A1000C0001A9006EB46007601C4000001224681
:101A2000029CCDE91E7CCDE90C01CDE91C6500BF0F
:101A30000C9804EB03091F461A9B04EB010826448B
:101A4000254404EB020E14ED017ADDF87CC011464A
:101A500056ED010A1EED012A18ED013A19ED014A71
:101A600015ED016A04EB030A20443B46E3441AEDFA
:101A7000011A10ED015A77EE204A74EE032A37EE70
:101A8000607A72EE011A76EE053A32EE411A34EEC1
:101A9000432A36EE455A72EEA15A74EEA36A34EE2A
:101AA000E33A72EEE11A76EEA57A76EEE55A44ED67
:101AB000017A46ED015ADAED005ADEED006AD8ED02
:101AC000007A99ED008A90ED009A95ED00AA96EDC6
:101AD00000BA94ED00CA36EEA5DA38EE27EA3AEEFF
:101AE00009FA7CEE0B8A36EEE54A78EE673A72EE3A
:101AF000415A32EE011A3CEE4B6A7EEE0D9A78EEB8
:101B00008FAA3EEE4DDA73EE842A78EECF6A65EE48
:101B1000800A33EEC42A21EE001A7AEEA9BA73EED7
:101B20000D4A7AEEE99A33EE4D3A62EE802A76EE6D
:101B3000E15A71EEA61A22EE002A37EE604AC4ED91
:101B400000BAC6ED009A45ED014A7AEE494A00ED29
:101B5000013A37EE203AC5ED005AC0ED001A76EE94
:101B6000021A36EE422A74EEA27A34EEE27A73EE6C
:101B7000275A33EE673A74EE070A34EE474A49EDC6
:101B8000015A0AED013A35EE013A48ED010A0EED2F
:101B9000014A35EE411A31EEC37A33EE213A32EE84
:101BA000414A31EE021A89ED007A8AED003ADDE908
:101BB0001C651E9F1B980D9988ED004A8EED001A3A
:101BC0003C448345FFF434AFBCF1400FC0F0C98101
:101BD0000398DDF804800025012707920E9380B258
:101BE00006900898C0EBC000C00005900698049CC1
:101BF000CDF824800A97DFEDDE2A054405EB850346
:101C000005EB45020B95D900D00004EBC30304316A
:101C1000043004EB010E04EB451104EB000CC5EBA2
:101C2000C50091ED000A04EB0511DCED006AC44625
:101C3000DEED005ADDF81C808DED1A0A91ED000AE8
:101C400004EBC5018DED190A91ED000A04EBC0010A
:101C5000C00004308DED180A91ED000A04EB02116A
:101C600020448DED170A91ED000A110104EBC20228
:101C700004318DED160A93ED000AEB0004EB010927
:101C80006901043304318DED150A92ED000A2A0131
:101C90002344043222440C448DED140A94ED000ACE
:101CA0008DED130A92ED000A8DED120A93ED000AF4
:101CB0003B468DED110A90ED000A8DED100A99ED6D
:101CC000000A8DED0F0ADDE90C15059F1D980CEB40
:101CD000060B0CEB01090CEB05020CEB070E9CED5F
:101CE00002DA9CED03EADDED1A3ADDED134A1C9EA3
:101CF0009BED02FADEED027A92ED029A99ED02BABC
:101D00000CEB000A0E989AED02CA7DEE0FBA0CEBAE
:101D100000040CEB080090ED028A94ED02AA7CEE20
:101D20000BAA7BEEAADA78EE278A7AEE099A78EE89
:101D3000677A3AEE498A79EEA8CA38EE670A78EEF1
:101D4000277A79EEE88A7DEEACEA7DEEECCA20EEE9
:101D5000220A67EEA27ACCED02EA63EEAC0A64EEE8
:101D6000ACCADBED03DA9EED039A90ED03AAD2ED47
:101D700003EAD4ED03FA99ED031A9AED032A32EE41
:101D8000013A3EEE2D4A7AEE099A3FEEAE8A32EEE5
:101D9000411A38EE295A34EE036A34EE433A38EEEB
:101DA000698A3BEEEA4A36EE457A36EE055A3AEE55
:101DB000496A3FEEEE9A39EE46AA64EE871A39EE8A
:101DC000066A23EE877ADDED124ADDED193A8CEDD5
:101DD000035A34EE085A3DEE4F9A34EE484A26EE46
:101DE000222A37EE6C6A30EEA17A73EE680A7CEE36
:101DF0004B1A38EE833A3EEE6DCA2AEE22AA39EE2D
:101E0000008A39EE400A24EE85BA23EEA0DA23EEEA
:101E1000855A64EEA00ADDED0F4ADDED163A8BED32
:101E2000027A8BED036A31EE02EA31EEA77A31EEE7
:101E3000421A31EEE72A7CEE4A1A3DEE4B6A30EE4A
:101E4000855A3CEE0ABA38EE0EFA38EE4E8A70EE3B
:101E5000017A30EE410A32EE211A64EE840A23EE52
:101E600083DA8AED025A23EE844ADDED183A24EE35
:101E7000833A7BEE478A8AED036A37EE0B7A3DEEB2
:101E8000605ADDED110A33EE043A23EEA86A23EE20
:101E90008FDA89ED023ADDED103A89ED035A20EE32
:101EA0008F4A60EEA80A36EE443A3DEE204ADDED58
:101EB000170A23EE885A84ED024A84ED033A20EE95
:101EC000876A60EE880A23EE877A31EEC28A30EEA6
:101ED000874ADDED150A36EE453A25EEA75A25EE7E
:101EE000887A8EED024A8EED033A26EE804A20EE85
:101EF000886A60EEA70A36EE452A9DED146A30EE38
:101F0000873A82ED023A82ED032A26EE015A26EE46
:101F1000811A26EE000A30EE010A35EE442A80EDE1
:101F2000020A80ED032A1E9884441F9803441B98DC
:101F30008342FFF4CBAE0A9FDDF8248008980B9D06
:101F4000013708F108088742FFF450AE0398DDF826
:101F500020C09FED070AC00003901F983F283FF65E
:101F600049AD20B0BDEC108B01B0BDE8F08F00BFD3
:101F7000F304353FB0B52DED028B15460022B2EBD0
:101F8000910F25D08A089FED2A0A0446534221F07A
:101F9000030200BF94ED001A94ED012A94ED023A79
:101FA00094ED034A1034013321EE011A22EE022A85
:101FB00030EE010A23EE031A30EE020A24EE042A60
:101FC00030EE010A30EE020AE4D100EB820001E0BB
:101FD0009FED170A11F003020AD0524290ED001A49
:101FE000013200F1040021EE011A30EE010AF5D1B0
:101FF00001EE101AB8EE411A80EE018AB5EEC08AE1
:10200000F1EE10FA02DA9FED0A0A0CE0B0EE480A8F
:1020100006F09AFEB4EEC00AF1EE10FA03D7B0EE65
:10202000480A06F091FE85ED000ABDEC028BB0BDBA
:10203000000000009FED221A41F238130021B7EE94
:10204000004AC0F2010320EE010ABDEEC01AB5EE4F
:10205000C00A11EE100AF1EE10FA9FED1A1AB8BF7D
:10206000013802EE100AB8EEC22A30EE420A9FEDA5
:10207000162A20EE010ABDEEC01A11EE100A30EE4B
:10208000021A0246B1EB502F18BF002202EE102AAE
:1020900003EB8203B1EB502F18BFB0EE410AB8EE4C
:1020A000421A93ED002A93ED013A30EE410A34EEE4
:1020B000401A20EE030A21EE021A31EE000A7047A0
:1020C00083F9223E00000044000000C410B5002443
:1020D0000021044800F07CF80446A0B200F06EFD38
:1020E00010BD000000B0034070B50546284600F062
:1020F00091F8064951F82040054901EB1440016868
:102100000122A2409143016000BF70BDA4C3000042
:102110000070044078B5044600260025206A00F0CF
:10212000400020B10126206A20F040002062606A51
:1021300040F0C000606207E0204600F07BF800F04D
:10214000400008B1012507E00021204600F046F8D4
:1021500000F080000028EFD000BF206900901EB181
:10216000206A40F040002062204600F063F800F052
:10217000400000B101250DB1284678BDE06CA16C8E
:102180000844616C0844216C0844E16B0844A16B6D
:10219000084400904FF40041009841EA500000903C
:1021A0000098E062E06EA16E0844616E0844216E02
:1021B0000844E16D0844A16D084400904FF40041CB
:1021C000009841EA50000090009820630020D4E776
:1021D000024602F1100050F821007047024600202C
:1021E00052F8213003F080030BB140F080007047BB
:1021F0000021017003214170012181700321C17010
:10220000012101710421417100218171C1710172AB
:10221000704700000146002006E0054A52F82020E1
:102220008A4200D102E0401C0228F6D300BF70476A
:102230009CC30000014600200A6A02F080020AB135
:1022400040F080004A6A02F040020AB140F04000CB
:10225000704700002DE9F04105460C462846FFF77F
:10226000D9FF264951F82070254901EB1740016834
:102270000122BA401143016000BF607800F0030002
:1022800021790C2202EA810140EA010660790428E2
:1022900001D046F01006E078602101EA40100643C4
:1022A000E07908B146F08006AE60E86820F00F06DD
:1022B0006079042803D0607900F003000643A07918
:1022C00008B146F00406A07808B146F00806EE60B2
:1022D000286A20F00306207800F0030006432E62EF
:1022E000207A20B1686A40F00800686203E0686AFA
:1022F00020F008006862BDE8F0810000A4C300007F
:102300000070044010B50346147804F01F0054799F
:102310000CB140F0200014790CB140F0400043F8BB
:10232000210010BD21B9C26822F01002C26003E092
:10233000C26842F01002C260704700002DE9F04709
:102340002DED028B8AB00025A8460026A9469FEDF8
:10235000FB0AB0EE408A9FEDF90AF0EE408AF84899
:10236000D0F82D0000EE100AFFF7CEF9B0EE408A4B
:10237000F348D0F82D0000EE100AFFF75BFEF0EEF8
:10238000408A4FF4004008F0D1FB81464FF4804072
:1023900008F0CCFB05464FF4004008F0C7FB804630
:1023A0004FF4804008F0C2FB0646E548D0F809002B
:1023B00000EE100AB5EEC00AF1EE10FA0BDDE048AF
:1023C000D0F8090000EE100AF7EE000A80EE801A3D
:1023D0008DED071A03E0B7EE000A8DED070AD84825
:1023E000D0F80D0000EE100AB5EEC00AF1EE10FABA
:1023F0000BDDD348D0F80D0000EE100AF7EE000A0E
:1024000080EE801A8DED081A03E0B7EE000A8DED1C
:10241000080ACB48D0F8110000EE100AB5EEC00A49
:10242000F1EE10FA0BDDC648D0F8110000EE100AEC
:10243000F7EE000A80EE801A8DED091A03E0B7EE80
:10244000000A8DED090A0024EEE204EB4400BD49C8
:1024500001EB8000C08800282BDB04EB440001EB7B
:102460008000C088B0F5805F23DA00201DE004EB17
:102470004401B44A52F8212000F5805132F811107D
:1024800000EE101AB8EE400ADFEDAF0A20EE200A87
:1024900007A901EB8401D1ED000A20EE200A05EB2B
:1024A000800181ED000A411C88B2B0F5805FDEDB5F
:1024B00020E000201BE004EB4401A24A52F8211066
:1024C00031F8101000EE101AB8EE400ADFED9E0A47
:1024D00020EE200A07A901EB8401D1ED000A20EECD
:1024E000200A05EB800181ED000A411C88B2B0F59D
:1024F000805FE0DB0027042008F018FB0746002C73
:1025000075D19048C088002822DB8E48C088B0F57D
:10251000805F1DDA002017E08A49CA6800F5805103
:1025200032F8111000EE101AB8EE400ADFED860AFC
:1025300020EE200ADDED080A20EE200A06EB8001DD
:1025400081ED000A411C88B2B0F5805FE4DB1AE03F
:10255000002015E07B49C96831F8101000EE101A10
:10256000B8EE400ADFED780A20EE200ADDED080A19
:1025700020EE200A06EB800181ED000A411C88B2A2
:10258000B0F5805FE6DB3A464FF480512846FFF70E
:1025900073F900200DE005EB800191ED000AD7ED05
:1025A000000A30EE600A05EB800181ED000A411C53
:1025B00088B2B0F5805FEEDB3A464FF4805130468A
:1025C000FFF75AF900200DE006EB800191ED000ABB
:1025D000D7ED000A30EE600A06EB800181ED000ABB
:1025E000411C88B2B0F5805FEEDB002012E015E000
:1025F00005EB800191ED000A20EE080A06EB800150
:10260000D1ED000A00EEA80A05EB800181ED000A79
:10261000411C88B2B0F5805FEADBB0E0012C75D1D7
:102620004848408A002822DB4648408AB0F5805F4F
:102630001DDA002017E043490A6800F5805132F89E
:10264000111000EE101AB8EE400ADFED3F0A20EE3E
:10265000200ADDED070A20EE200A06EB800181ED5D
:10266000000A411C88B2B0F5805FE4DB1AE000206C
:1026700015E03449096831F8101000EE101AB8EE70
:10268000400ADFED310A20EE200ADDED070A20EED8
:10269000200A06EB800181ED000A411C88B2B0F5EA
:1026A000805FE6DB3A464FF480512846FFF7E4F8B6
:1026B00000200DE005EB800191ED000AD7ED000A46
:1026C00030EE600A05EB800181ED000A411C88B202
:1026D000B0F5805FEEDB3A464FF480513046FFF7AD
:1026E000CBF800200DE006EB800191ED000AD7ED5C
:1026F000000A30EE600A06EB800181ED000A411C01
:1027000088B2B0F5805FEEDB002012E01EE005EB42
:10271000800191ED000A20EE080A06EB8001D1ED60
:10272000000A00EEA80A05EB800181ED000A411CB9
:1027300088B2B0F5805FEADB21E000000000000015
:1027400078C4FF1F08C1FF1FFF3F4E3D3A464FF4BC
:1027500080512846FFF790F800200DE005EB80013E
:1027600091ED000AD7ED000A30EE600A05EB80011A
:1027700081ED000A411C88B2B0F5805FEEDB38467F
:1027800008F01CFC2946204600F0F8FF4FF4805268
:1027900041462846FEF76EFB00200690AC4800EB51
:1027A000441206AB4FF480514046FEF7FDFFA848A7
:1027B00000EB4410021D4FF480512846FFF7DAFB6E
:1027C0004FF0000A4FF4804008F0B0F98246002034
:1027D00017E005EB800191ED000A20EE000A05EB01
:1027E0008001D1ED000A20EE200A05EB8001D1ED39
:1027F000000A20EE200A0AEB800181ED000A411C4C
:1028000088B2B0F5805FE4DB05AA4FF480515046F2
:10281000FFF732F8504608F0D1FB8D4800EB44102A
:1028200090ED010A20EE000A894800EB4410D0ED3B
:10283000010A20EE200A864800EB4410D0ED010A80
:1028400020EE200ADDED050A80EE801A804800EBBC
:10285000441080ED051A4A464FF48051084601F0B5
:102860008DF943462A464FF48051084601F026F977
:1028700042464FF48051084601F052F9744901EB89
:102880004411C8617348D0F81900CDE90186009061
:102890007048D0F8153001221103084601F0A6F95E
:1028A0006B4800EB441000F108024FF480513046B1
:1028B000FFF760FB6748D0F82100CDE90186009062
:1028C0006448D0F81D300222D102084601F08EF98A
:1028D0005F4800EB441000F110024FF48051304685
:1028E000FFF748FB06AB04AA4FF480513046FEF7D1
:1028F0005BFF06AB03AA4FF480513046FEF7FEFFA4
:102900009DED040ADDED030A30EE600A504800EB4D
:10291000441080ED030A4E4800EB441090ED010A8C
:10292000DFED4D0AB4EEE00AF1EE10FA2ED81FEDFD
:102930007D0A474800EB441080ED000A002044491E
:1029400001EB4411C8611FED830A414800EB4410BC
:1029500080ED030A1FED870A3D4800EB441080ED2F
:10296000040A1FED8A0A3A4800EB441080ED060A7B
:102970001FED8E0A364800EB441080ED050A1FED6E
:10298000910A334800EB441080ED020A304800EB16
:10299000441090ED010ADFED310AB4EEE00AF1EEE9
:1029A00010FA06DD9FED2D0A294800EB441080ED5A
:1029B000010A274800EB441090ED020ADFED280AD7
:1029C000B4EEE00AF1EE10FA06DD9FED250A20488C
:1029D00000EB441080ED020A1D4800EB441090ED1E
:1029E000040ADFED200AB4EEE00AF1EE10FA06DD8B
:1029F0009FED1C0A164800EB441080ED040A1448B1
:102A000000EB441090ED050ADFED170AB4EEE00A82
:102A1000F1EE10FA06DD9FED140A0D4800EB4410AC
:102A200080ED050A601CC4B2032CFFF60EAD2846EB
:102A300008F0C4FA404608F0C1FA304608F0BEFA81
:102A4000484608F0BBFA0AB0BDEC028BBDE8F0873F
:102A500030C1FF1F78C4FF1FCDCCCC3D0000C84261
:102A600000000C4200000C440000484200B52DED6F
:102A7000028B83B0164890ED010AB0EE408A9FEDBC
:102A8000150A38EE400A8DED020A012201A902A8BA
:102A9000FEF7F0F99DED010AF0EE000AB4EEE00A4F
:102AA000F1EE10FA0FD89FED0B0AC8EE000A0A48A3
:102AB000D0F8090000EE100A20EE800A10EE100A8D
:102AC0000549C1F8090003B0BDEC028B00BD000050
:102AD00030C1FF1FCDCC1C4178C4FF1F00B52DEDC8
:102AE000028B83B0164890ED090AB0EE408A9FED44
:102AF000150A38EE400A8DED020A012201A902A84A
:102B0000FEF7B8F99DED010AF0EE000AB4EEE00A16
:102B1000F1EE10FA0FD89FED0B0AC8EE000A0A4832
:102B2000D0F80D0000EE100A20EE800A10EE100A18
:102B30000549C1F80D0003B0BDEC028B00BD0000DB
:102B400030C1FF1FCDCC1C4178C4FF1F00B52DED57
:102B5000028B83B0164890ED110AB0EE408A9FEDCB
:102B6000150A38EE400A8DED020A012201A902A8D9
:102B7000FEF780F99DED010AF0EE000AB4EEE00ADE
:102B8000F1EE10FA0FD89FED0B0AC8EE000A0A48C2
:102B9000D0F8110000EE100A20EE800A10EE100AA4
:102BA0000549C1F8110003B0BDEC028B00BD000067
:102BB00030C1FF1FCDCC1C4178C4FF1F10B50446A7
:102BC000374890F824003749085C00EB400034494E
:102BD00051F8200091F82410324A515C01EB410178
:102BE0002F4A02EB8101C98820F81140104690F865
:102BF00024002C49085C00EB4000114601EB8000EA
:102C0000C088401C91F82410264A515C01EB410118
:102C1000234A02EB8101C880104690F82400214924
:102C2000085C00EB4000114601EB8000C08891F881
:102C300024101C4A515C01EB4101194A02EB81014D
:102C40008988490090FBF1F201FB1200144991F8C8
:102C50002410144A515C01EB4101114A02EB81013D
:102C6000C8801046C08BB0F5805F02D01046C08B84
:102C700090B90B48C18B408A81420DD10848408AE7
:102C80000749C988884207D107A1002004F0F4F958
:102C90000221042004F0A2FB00F00AFE10BD000097
:102CA00008C1FF1F98C300005245414420456E747F
:102CB000657220436C61630D0A00000010A10020C2
:102CC00004F0DAF900BF00BF00BF00BF00BFBFF3D0
:102CD0004F8F00BF00BF00BF0C48006800F4E060E9
:102CE0000B490843001D0949086000BF00BF00BF31
:102CF000BFF34F8F00BF00BF00BF00BF00BFFDE7A5
:102D000048616C20526573740D0A00000CED00E000
:102D10000000FA0570B504460D4620787E2810D1D3
:102D2000A178E07801EB0021A81F814209D1294652
:102D3000204603F072FA012803D12946204606F006
:102D4000ABFD70BD10B52DED028B0024FE48B0F830
:102D50005C0084B2FC48FDA1C26D002004F08CF937
:102D600022460021032003F0D2FCF74890ED100A20
:102D7000DFEDFA0A20EE200ABCEEC00A10EE100ABF
:102D800084B2F148D0ED100AB0EE600AF4A001F070
:102D9000F3FF22460121032003F0B9FCEA4890ED3D
:102DA000110ADFEDEE0A20EE200ABCEEC00A10EE9A
:102DB000100A84B2E448D0ED110AB0EE600AEBA02C
:102DC00001F0DAFF22460221032003F0A0FCDE48D6
:102DD00090ED120ADFEDE10A20EE200ABCEEC00AF7
:102DE00010EE100A84B2D848D0ED120AB0EE600A94
:102DF000E1A001F0C1FF22460321084603F087FC51
:102E0000D14890ED130ADFEDD50A20EE200ABCEE82
:102E1000C00A10EE100A84B2CB48D0ED130AB0EE0F
:102E2000600AD9A001F0A8FF22460421032003F084
:102E30006EFCC54890ED150ADFEDC80A20EE200AA9
:102E4000BCEEC00A10EE100A84B2BF48D0ED150ADD
:102E5000B0EE600AD0A001F08FFF224605210320CA
:102E600003F055FCB84890ED160ADFEDBC0A20EEE1
:102E7000200ABCEEC00A10EE100A84B2B248D0EDAF
:102E8000160AB0EE600ACAA001F076FF22460621BB
:102E9000032003F03CFCAC4890ED140ADFEDAF0AD0
:102EA00020EE200ABCEEC00A10EE100A84B2A6483A
:102EB000D0ED140AB0EE600AC0A001F05DFF22461A
:102EC0000721032003F023FC9F48808B84B29E4897
:102ED000BEA1C269002004F0CFF822460A210320D7
:102EE00003F015FC984890ED000ADFED9C0A20EEF7
:102EF000200ABCEEC00A10EE100A84B29248D0ED4F
:102F0000040AB0EE600AB5A001F036FF22460B219C
:102F1000032003F0FCFB8C4890ED010ADFED8F0AE3
:102F200020EE200ABCEEC00A10EE100A84B28648D9
:102F3000D0ED010AB0EE600AABA001F01DFF224601
:102F40000C21032003F0E3FB7F4890ED020ADFED44
:102F5000830A20EE200ABCEEC00A10EE100A84B2EA
:102F60007948D0ED020AB0EE600AA2A001F004FF99
:102F700022460D21032003F0CAFB734890ED030A9B
:102F8000DFED760A20EE200ABCEEC00A10EE100A31
:102F900084B26D48D0ED030AB0EE600A99A001F04A
:102FA000EBFE22460E21032003F0B1FB664890EDB4
:102FB000050ADFED6A0A20EE200ABCEEC00A10EE18
:102FC000100A84B26048D0ED050AB0EE600A91A004
:102FD00001F0D2FE22460F21032003F098FB5A484D
:102FE00090ED060ADFED5D0A20EE200ABCEEC00A75
:102FF00010EE100A84B25448D0ED060AB0EE600A12
:103000008AA001F0B9FE22461021032003F07FFBC5
:103010004D4890ED040ADFED510A20EE200ABCEE87
:10302000C00A10EE100A84B24748D0ED060AB0EE8E
:10303000600A81A001F0A0FE22461121032003F0C6
:1030400066FB4148808F84B23F487FA1C26B00205D
:1030500004F012F822461421032003F058FB3A48EA
:1030600090ED080ADFED3D0A20EE200ABCEEC00A12
:1030700010EE100A84B23448D0ED0E0AB0EE600AA9
:1030800075A001F079FE22461521032003F03FFBD5
:103090002D4890ED090ADFED310A20EE200ABCEE42
:1030A000C00A10EE100A84B22748D0ED090AB0EE2B
:1030B000600A6CA001F060FE22461621032003F096
:1030C00026FB214890ED0A0ADFED240A20EE200AB3
:1030D000BCEEC00A10EE100A84B21B48D0ED0A0AFA
:1030E000B0EE600A62A001F047FE224617210320DD
:1030F00003F00DFB144890ED0B0ADFED180A20EEEB
:10310000200ABCEEC00A10EE100A84B20E48D0EDC0
:103110000B0AB0EE600A5AA001F02EFE22461821DA
:10312000032003F0F4FA084890ED0D0ADFED0B0AD6
:1031300020EE200ABCEEC00A10EE100A84B202484B
:10314000D0ED0D0AA4E0000030C1FF1F5A204261FB
:103150007365467265713A25640D0A000000C84225
:103160005A204143435F503A000000005A20414337
:10317000435F524D533A00005A2056656C6F6369A5
:1031800074795F524D533A005A20446973706C61F0
:1031900063655F50503A00005A204B7572746F732C
:1031A00069735F436F656666696369656E743A004B
:1031B0005A20456E76656C6F70653A005A204469F6
:1031C00073706C6163655F524D533A0058204261E1
:1031D0007365467265713A25640D0A0058204143B3
:1031E000435F503A0000000058204143435F524D76
:1031F000533A0000582056656C6F636974795F52CA
:103200004D533A005820446973706C6163655F5098
:10321000503A000058204B7572746F7369735F43A6
:103220006F656666696369656E743A005820456E1D
:1032300076656C6F70653A005820446973706C61F4
:1032400063655F524D533A0059204261736546727F
:1032500065713A25640D0A0059204143435F503A95
:103260000000000059204143435F524D533A000093
:10327000592056656C6F636974795F524D533A00FB
:103280005920446973706C6163655F50503A000067
:10329000B0EE600A2AA001F06FFD2246192103203A
:1032A00003F035FA2C4890ED0E0A5FED540A20EE3B
:1032B000200ABCEEC00A10EE100A84B22648D0EDF7
:1032C0000E0AB0EE600A25A001F056FD22461A2132
:1032D000032003F01CFA204890ED0C0A5FED610A10
:1032E00020EE200ABCEEC00A10EE100A84B21A4882
:1032F000D0ED0C0AB0EE600A1BA001F03DFD2246A5
:103300001B21032003F003FA01F070F8B0EE408AAD
:103310001FED6E0A28EE000ABDEEC00A10EE100A7C
:1033200084B2B0EE480A14A001F026FD22461E2108
:10333000032003F0ECF906F0C7FABDEC028B10BDD8
:1033400059204B7572746F7369735F436F6566665E
:10335000696369656E743A0030C1FF1F5920456E7C
:1033600076656C6F70653A005920446973706C61C2
:1033700063655F524D533A0074656D706572617498
:103380007572653A0000000070B500255B48057A4B
:103390002A460021022003F0BAF9002408E0574829
:1033A000055D611C2A46022003F0B1F9601CC4B21D
:1033B000082CF4DB5148D0F8110000EE100ADFEDC4
:1033C000500A20EE200ABCEEC00A10EE100A85B2A8
:1033D0002A460921022003F09AF94848D0F809004A
:1033E00000EE100ADFED460A20EE200ABCEEC00A0D
:1033F00010EE100A85B22A460A21022003F087F94E
:103400003E48D0F80D0000EE100ADFED3D0A20EE38
:10341000200ABCEEC00A10EE100A85B22A460B2123
:10342000022003F074F93548B0F8150085B22A4639
:103430000C21022003F06BF93048B0F8190085B276
:103440002A460D21022003F062F92C48B0F81D0035
:1034500085B22A460E21022003F059F92748B0F818
:10346000210085B22A460F21022003F050F923489B
:10347000D0F8250000EE100ADFED210A20EE200A28
:10348000BDEEC00A10EE100A85B22A4610210220B5
:1034900003F03DF9194890F829502A4611210220DD
:1034A00003F035F9154890F82A502A4612210220D7
:1034B00003F02DF9114890F82B502A4613210220D1
:1034C00003F025F90D4890F82C502A4614210220CB
:1034D00003F01DF90948D0F82D0000EE100ADFEDC9
:1034E000080A20EE200ABCEEC00A10EE100A85B2CF
:1034F0002A461621022003F00AF970BD78C4FF1F86
:103500000000C84238B5002000906A460021022021
:1035100003F0D2F8012803D1BDF8000095490872E4
:1035200000240CE0611C6A46022003F0C5F8012863
:1035300003D1BDF800008F490855601CC4B2082CA7
:10354000F0DB6A460921022003F0B6F801280ED10B
:10355000BDF8000000EE100AF8EE400A9FED861A52
:1035600080EE810A10EE100A8249C1F811006A4605
:103570000A21022003F0A0F801280ED1BDF80000B6
:1035800000EE100AF8EE400A9FED7B1A80EE810AE9
:1035900010EE100A7749C1F809006A460B21022093
:1035A00003F08AF801280ED1BDF8000000EE100AE1
:1035B000F8EE400A9FED701A80EE810A10EE100AB4
:1035C0006C49C1F80D006A460C21022003F074F822
:1035D000012804D1BDF800006649C1F815006A460B
:1035E0000D21022003F068F8012804D1BDF8000085
:1035F0006049C1F819006A460E21022003F05CF808
:10360000012804D1BDF800005A49C1F81D006A46DE
:103610000F21022003F050F8012804D1BDF800006A
:103620005449C1F821006A461021022003F044F8F1
:1036300001280FD1BDF8000000B200EE100AF8EE2C
:10364000C00A9FED4D1A80EE810A10EE100A49491A
:10365000C1F825006A461121022003F02DF8012847
:1036600004D1BDF80000434981F829006A461221BF
:10367000022003F021F8012804D1BDF800003D49E3
:1036800081F82A006A461321022003F015F8012868
:1036900004D1BDF80000374981F82B006A46142197
:1036A000022003F009F8012804D1BDF800003149D7
:1036B00081F82C006A461521022002F0FDFF012846
:1036C0000BD1BDF80000012802D1FFF7F7FA04E0A2
:1036D00000221521022003F01AF86A461621022062
:1036E00002F0EAFF01280ED1BDF8000000EE100A3A
:1036F000F8EE400A9FED201A80EE810A10EE100AC3
:103700001C49C1F82D006A461721022002F0D4FF9F
:1037100001280AD1BDF80000012801D1FFF716FAEF
:1037200000221721022002F0F2FF6A46182102202F
:1037300002F0C2FF01280AD1BDF80000012801D122
:10374000FFF794F900221821022002F0E0FF6A46F8
:103750001921022002F0B0FF01280AD1BDF80000B3
:10376000012801D1FFF7BAF900221921022002F045
:10377000CEFF38BD78C4FF1F0000C8422DE9F041DC
:1037800004460D463048007801285BD10027D4B9A3
:10379000002615E005EB860090ED000ADFED2B0A10
:1037A00020EE200ABCEEC00A10EE100A87B206F620
:1037B000340081B23A46032002F0A9FF701C86B2A1
:1037C000B6F5FA6FE6DB012C1BD1002616E005EBFF
:1037D000860090ED000ADFED1D0A20EE200ABCEE07
:1037E000C00A10EE100A87B241F20400304481B2E0
:1037F0003A46032002F08BFF701C86B2B6F5FA6FD2
:10380000E5DB022C1DD1002615E005EB860090EDCE
:10381000000ADFED0E0A20EE200ABCEEC00A10EE10
:10382000100A87B206F1640081B23A46032002F022
:103830006EFF701C86B2B6F5FA6FE6DB0020024917
:10384000087000BFBDE8F0810000FF1F0000C84203
:1038500010B505A1002003F00FFC012000F02AFFA5
:1038600000F0A4F810BD00004150505F53616D702E
:103870006C655F4465696E69740D0A0010B507A137
:10388000002003F0F9FB012000F023FF00F09AF87C
:1038900006F02CF800F03EF810BD00004150505FDB
:1038A00053616D706C655F496E69740D0A000000AC
:1038B00010B5164890F82400401C144981F82400E3
:1038C000084690F824000321B0FBF1F201FB12003E
:1038D0000E4981F82400084690F824000C49085C41
:1038E00020B1012806D002280CD107E0052000F005
:1038F0004BF808E0072000F047F804E0062000F04D
:1039000043F800E000BF00BF10BD000008C1FF1F6A
:1039100098C3000010B500F0C5FE10BD10B500BF83
:103920004FF082701149486400BF114801F016F948
:103930000F4908680F49086000BF0F49087900F077
:103940002FFF0D49C87901F10802002100F00CFF9A
:10395000094BDA789978587801F054F9074801F062
:10396000D5F907480749086010BD000000800440F1
:1039700074C300002C00FF1F60C300006CC3000074
:10398000000E27072000FF1F1CB5044600940020EE
:103990008DF8050001208DF804006A4600210248D8
:1039A000FEF7B0FC1CBD000000B0034010B503489A
:1039B00003F0EEF80248FEF797FB10BD00600340ED
:1039C00000B003403EB53648364A02EB10410A6863
:1039D000012383401A430A6000BF002201213248BC
:1039E00003F07CF9002205212F4803F077F900222B
:1039F00006212D4803F072F96846FEF7F9FB002016
:103A00008DF8000002208DF8010000208DF80200E2
:103A10008DF8030003208DF8040004208DF80500C4
:103A200001208DF8060000208DF807008DF80800B1
:103A300069461E48FEF70EFC1C48FEF76BFB012191
:103A40001A48FEF76FFC1A48806940F019001849BF
:103A50008861012030B11549096A41F04001134ADB
:103A6000116205E01149096A21F040010F4A116213
:103A700000BF272001F00EFE27200621002804DBCE
:103A80000A07130E0B4A135406E00A07140E0A4ADB
:103A900000F00F031B1FD45400BF05F05FFF3EBDB5
:103AA0000C0038100070044000C0044000B0034017
:103AB0000080044000E400E018ED00E02DE9F04152
:103AC00004460F4615461E46002014E005EB800113
:103AD00091ED000A1049096901EBC00181ED000A6E
:103AE0009FED0E0A0C490A694100491C02EB810155
:103AF00081ED000A401CA042E8D3074801230022C0
:103B00000169FDF70FFAE200034801693046FCF74E
:103B10009BFDBDE8F081000038C3FF1F00000000DE
:103B20007CB504460E4615461348224601692846D0
:103B3000FDF74AFD012013E00F49096901EB8001FF
:103B4000D1ED000A610800EE101AB8EE400A80EECE
:103B5000801A0949096901EB800181ED001A401CB6
:103B6000B0EB540FE8D36108034A6B46106901AA11
:103B7000FDF71AFE00987CBD38C3FF1FF0B5174B48
:103B80001A61B0F5806F06D0B0F5006F0CD0B0F5BB
:103B9000805F1CD111E0114B114E96E8B000F66821
:103BA00083E8B000DE6017E00C4C0E4D95E8C800CD
:103BB000ED6884E8C800E5600EE0084E0A4FD7E9DA
:103BC0000045D7E90237C6E9023730C604E0034EA4
:103BD000034FB8CFB8C600BF00BFF0BD38C3FF1F4A
:103BE0000811010018110100281101002DE9F05FF2
:103BF0002DED0C8B80460C4691461E46DDED168A57
:103C0000DDE917BAB8FBF4F000EE100AB8EE400A8E
:103C1000B0EE408A9FEDF90A28EE000AB0EE409A15
:103C20000025012009EE900A4FEA880006F07EFF89
:103C3000054600EE106AB8EE400AC0EE080A10EE23
:103C4000907A3846FCF7ACFD41EC1C0BB0EE4C0A08
:103C5000F0EE6C0A05F008F8B0EE40BAF0EE60BA8B
:103C600051EC1B0BFCF7AFFD0AEE100AB8EE680A28
:103C7000C0EE080A10EE907A3846FCF791FD41EC50
:103C80001C0BB0EE4C0AF0EE6C0A04F0EDFFB0EE47
:103C900040BAF0EE60BA51EC1B0BFCF794FD0AEE53
:103CA000900A00272EE000EE107AB8EE400A29EEC6
:103CB000000A05EB870080ED000A4846FCF763FD2B
:103CC00041EC1C0B05EB870090ED000A10EE101A7A
:103CD0000846FCF765FD41EC1D0BB0EE4C1AF0EE0A
:103CE0006C1AB0EE4D0AF0EE6D0A04F095F9B0EEE4
:103CF00040BAF0EE60BA51EC1B0BFCF764FD45F8DE
:103D000027007F1CB7EB540FCDD3012000EB5407E5
:103D10002FE0381B00EE100AB8EE400A20EE090A28
:103D200005EB870080ED000A4846FCF72CFD41ECCE
:103D30001C0B05EB870090ED000A10EE101A0846E8
:103D4000FCF72EFD41EC1D0BB0EE4C1AF0EE6C1A98
:103D5000B0EE4D0AF0EE6D0A04F05EF9B0EE40BA36
:103D6000F0EE60BA51EC1B0BFCF72DFD45F8270077
:103D70007F1CA742CDD3E200A14908695946FCF750
:103D800063FC012028E09E49096901EBC00191ED27
:103D9000000A05EB8001D1ED000A80EE201A984957
:103DA000096901EBC00181ED001A95490A694100DA
:103DB000491C02EB810191ED000A05EB8001D1ED78
:103DC000000A80EE201A8E490A694100491C02EB64
:103DD000810181ED001A401C611E8142D3D8284622
:103DE00007F0ECF8B9F1020F68D100EE106AB8EEF6
:103DF000400AC0EE080A10EE907A3846FCF7D0FC74
:103E000041EC1C0BB0EE4C0AF0EE6C0A04F02CFFF7
:103E1000B0EE40BAF0EE60BA51EC1B0BFCF7D3FCED
:103E20000AEE100AB8EE680AC0EE080A10EE907AA0
:103E30003846FCF7B5FC41EC1D0BB0EE4D0AF0EE38
:103E40006D0A04F011FFB0EE40CAF0EE60CA9FEDBB
:103E50006D0B53EC102B51EC1C0BFCF722FC41ECCE
:103E60001B0BFCF7B0FC0AEE900A002020E064492E
:103E7000096901EBC00191ED000AB1EE400A604909
:103E8000096901EBC00181ED000A5D490A69410041
:103E9000491C02EB810191ED000AB1EE400A58493C
:103EA0000A694100491C02EB810181ED000A401CB6
:103EB000A042DCD3554809EE900A5FE000EE106A9C
:103EC000B8EE400AC0EE080A10EE907A3846FCF7C9
:103ED00067FC41EC1C0BB0EE4C0AF0EE6C0A04F0EF
:103EE000C3FEB0EE40BAF0EE60BA51EC1B0BFCF72B
:103EF0006AFC0AEE100AB8EE680AC0EE080A10EE74
:103F0000907A3846FCF74CFC41EC1C0BB0EE4C0AA6
:103F1000F0EE6C0A04F0A8FEB0EE40BAF0EE60BA23
:103F200051EC1B0BFCF74FFC0AEE900A00201EE040
:103F30003349096901EBC00191ED000AB1EE40DAA5
:103F40002F490A694100491C02EB810191ED000AE9
:103F50002B49096901EBC00181ED000A28490A6972
:103F60004100491C02EB810181ED00DA401CA042B6
:103F7000DED34FF47A7009EE900A00BF002012E001
:103F80009FED230A1E49096901EBC00181ED000A7A
:103F90009FED1F0A1A490A694100491C02EB810181
:103FA00081ED000A401C00EE100AB8EEC00AB4EE23
:103FB000EA0AF1EE10FAE3D3BDEECA0A10EE100AD7
:103FC00012E09FED130A0E49096901EBC00181ED72
:103FD000000A9FED0F0A0A490A694100491C02EBD9
:103FE000810181ED000A401CA042EAD3044801236C
:103FF0001A460169FCF796FF00201EE0DB0FC9405E
:1040000038C3FF1F000000000000004040420F00C6
:10401000000000000C49096901EBC00191ED000AA4
:10402000F8EE690A20EE200AF0EE000A20EE200ADF
:104030000AEB800181ED000A401CA042EAD3BDECEE
:104040000C8BBDE8F09F000038C3FF1F38B5314826
:10405000009034213048FCF710FB2F4801F0D4FBCE
:1040600004460CB105F09AFE2C4A04212A4801F0BE
:1040700073FB2B4A0121284801F06EFB294A0021DD
:10408000254801F069FB28A1002002F0F5FF234834
:104090002BA10268002002F0EFFF21480068820A8D
:1040A0001F4830A10368002002F0E6FF1D480068A9
:1040B000820A1C4838A10368002002F0DDFF69462F
:1040C000154801F07FFB04460CB105F067FE11496D
:1040D00049420098084438B13C49084448B13C4939
:1040E000084400280FD109E03AA1002002F0C4FFE3
:1040F0000AE03EA1002002F0BFFF05E046A100203B
:1041000002F0BAFF00E000BF00BF4EA1002002F0A5
:10411000B3FF38BD3CC33CC3000000200400FF1FB8
:104120000800FF1F0C00FF1F0D0A2050466C617332
:104130006820496E666F726D6174696F6E3A200017
:104140000D0A2070666C617368426C6F636B42612C
:1041500073653A4865783A202830782578290D0A21
:10416000000000000D0A20546F74616C2050726FC3
:104170006772616D20466C6173682053697A653A95
:10418000092564204B422C204865783A2028307855
:104190002578290D0A0000000D0A2050726F677201
:1041A000616D20466C61736820536563746F722083
:1041B00053697A653A092564204B422C204865787A
:1041C0003A20283078257829200D0A0097689768CA
:1041D000001EE2FF0D0A20466C617368206973209F
:1041E000554E534543555245210000000D0A2046C7
:1041F0006C617368206973205345435552452C20E8
:104200004241434B444F4F5220697320454E414237
:104210004C454421000000000D0A20466C61736883
:10422000206973205345435552452C204241434B4E
:10423000444F4F522069732044495341424C4544F6
:10424000210000000D0A000010B50346002000BF49
:1042500003E01C5C0C54441CA0B29042F9DB10BD7E
:10426000F0B585B004460D46164600274FF480523F
:1042700027492046FFF7E8FF324629462448FCF745
:10428000E3F9012080F3108800BF224B2248214629
:104290000268224801F014FA07463A4620A100209D
:1042A00002F0EAFE01231C48214602681B4801F087
:1042B00045FB07463A461AA1002002F0DDFE1648EB
:1042C000134A21460368154801F0ECFA07463A46BE
:1042D00013A1002002F0D0FE03A804A901220C4B78
:1042E000CDE9002102900C48214602680B4801F0FC
:1042F00079FB0746039800903A460CA10020049BE6
:1043000002F0BAFE002080F3108800BF05B0F0BDB7
:10431000340000206B66656B0C00FF1F000000205E
:10432000466C6173683A25640D0A0000466C61733F
:10433000683A2564202C6661696C416464723A2590
:1043400064202C6661696C4461743A25640D0A002E
:1043500010B500F0A9F8FFF779FE02A1002002F0E5
:104360008BFE10BD62737020696E69740D0A0000C7
:104370001948007A012804D0022806D0032827D142
:1043800025E002201449087223E003201249087234
:1043900008460068486000200860084690ED010A61
:1043A000F8EE400A9FED0D1A9FED0D0A10EE810AFE
:1043B0000C48D0F8250000EE900A9FED0B1A00EE95
:1043C000810A084680ED030A0420487201E000E0FB
:1043D00000BF00BF704700001000FF1F0000803DBD
:1043E0000000484278C4FF1FCDCCCC3D05200349D6
:1043F0004872084690ED030A704700001000FF1F46
:1044000008B52548254A02EB10410A68012383407C
:104410001A430A6000BF01220821214802F065FC0E
:1044200000208DF801008DF800006A4608211D4823
:1044300001F047FD01220721194802F056FC002037
:104440008DF8010001208DF800006A46072115480B
:10445000803801F036FD09220821114802F030FCB5
:104460003C2010F1800F00D10EE00146002909DB4D
:1044700001F01F0301229A404B099B0003F1E02346
:10448000C3F8002100BF00BF012207210548803882
:1044900001F035FD08BD00000A003810007004402E
:1044A00000A00440C0F00F4010B5002000F044FA16
:1044B000044622462FA1002002F0DEFD012000F07C
:1044C0003BFA0446224631A1002002F0D5FD02202D
:1044D00000F032FA0446224631A1002002F0CCFD61
:1044E000042000F029FA0446224632A1002002F0FE
:1044F000C3FD062000F020FA0446224633A1002026
:1045000002F0BAFD0B2000F017FA0446224636A14D
:10451000002002F0B1FD0C2000F00EFA0446224605
:1045200038A1002002F0A8FD0D2000F005FA044695
:1045300022463CA1002002F09FFD0E2000F0FCF975
:10454000044622463DA1002002F096FD132000F013
:10455000F3F9044622463FA1002002F08DFD082019
:1045600000F0EAF9044622463FA1002002F084FD53
:1045700010BD00006B434C4F434B5F436F7265535C
:104580007973436C6B3A25640D0A00006B434C4F02
:10459000434B5F506C6174436C6B3A25640D0A00A9
:1045A0006B434C4F434B5F427573436C6B3A2564CE
:1045B0000D0A00006B434C4F434B5F466C617368C0
:1045C000436C6B3A25640D0A000000006B434C4FAE
:1045D000434B5F506C6C466C6C53656C436C6B3A30
:1045E00025640D0A000000006B434C4F434B5F4DA8
:1045F0006367466978656446726571436C6B3A25FA
:10460000640D0A006B434C4F434B5F4D6367496E2B
:104610007465726E616C526566436C6B3A25640D0D
:104620000A0000006B434C4F434B5F4D6367466C81
:104630006C436C6B3A25640D0A0000006B434C4FD1
:10464000434B5F4D6367506C6C30436C6B3A256431
:104650000D0A00006B434C4F434B5F4C706F436C33
:104660006B3A25640D0A00006B434C4F434B5F4F80
:104670007363304572436C6B3A25640D0A00000089
:1046800010B5074801F018FC00BF0548C06C04498C
:10469000486000BF0121024801F004FC10BD000089
:1046A0000080034010B50121014801F0FBFB10BD63
:1046B0000090034010B5044614B1012C06D102E06D
:1046C00005F08EF903E005F017FA00E000BF00BF27
:1046D00010BD10B5044614B1012C06D102E005F05E
:1046E00089F903E005F012FA00E000BF00BF10BD39
:1046F00010B5044624B1012C05D0022C09D105E0E7
:1047000005F02AFA06E005F029FA03E005F01AFBA5
:1047100000E000BF00BF10BD7CB504460E46154644
:1047200024B1012C03D0022C15D113E014E02A4649
:1047300031460A48FBF788FF0848009001954FF47E
:104740008041074803F058F86A460649044803F0D8
:1047500079F901E000E000BF00BF7CBD0CC2FF1F83
:1047600000B00640C0C1FF1F70B506460C46154696
:10477000304600F029FA2946204600F08FFA074813
:10478000007820F0C0000549087000BF0348807918
:10479000C0F381000328F9D1002070BD004006401D
:1047A0000349097860F3C501014A117070470000A0
:1047B000004006400021427802F01F0211430C4ADB
:1047C00011718378527963F30402094B5A711A46C6
:1047D0001279037843F040031A43054B1A7100BF66
:1047E000034A927902F04002002AF9D07047000093
:1047F0000040064000B510480068C0F3814020B179
:1048000002280DD0032811D10DE000F02FF9B0F5EA
:10481000004F02D14FF4004000E00020014607E0C5
:104820000648016804E04FF47A7101E0002100BFFE
:1048300000BF084600BD0000007004403000FF1FAC
:1048400010B500F069F8044634B100F02DF9B4EB6E
:10485000D00F01D8204610BD0020FCE72DE9F04123
:1048600000F0E6F8044614B92046BDE8F081164889
:104870000078C0F3C205EC4013484078C0F301173C
:104880001148007B00F0030607B10EB1022E19D1CA
:10489000082D14D2DFE805F00405060708090B0F00
:1048A00000BF00BF00BF00BF00BF640909E01420C3
:1048B000B4FBF0F405E00C20B4FBF0F401E00024BC
:1048C00000BF00BF2046D0E70040064070B510484A
:1048D000407800F0020020B90D48807900F02000F7
:1048E00008B1002070BD00F017F804460CB920464E
:1048F000F8E70748C078C0F341150548C078C609F5
:10490000044800EB850030F816006043EAE7000039
:1049100000400640ECC3000010B505488079C0F3A4
:10492000001010B9FFF79AFF10BD02480068FBE7BE
:10493000004006402400FF1F70B50546142D4AD2E2
:10494000DFE805F00A4914491E49282C4549493039
:1049500034383C494949404200F0A6F82049496CA6
:10496000012202EB1171B0FBF1F436E000F09CF88B
:104970001B49496CC1F30361491CB0FBF1F42CE005
:1049800000F092F81649496CC1F30341491CB0FB91
:10499000F1F422E000F0C6F804461EE0FFF72AFF1B
:1049A00004461AE0FFF74CFF044616E000F01CF83E
:1049B000044612E0FFF78AFF04460EE000F092F88A
:1049C00004460AE0074C08E04FF47A7405E000F072
:1049D0004DF8044601E0002400BF00BF204670BD32
:1049E00000800440006CDC0210B50548007800F03F
:1049F000020008B9002010BD00F004F8FBE7000039
:104A0000004006400748807900F0010010B90648D0
:104A1000006870470348007AC0F342010348006809
:104A2000C840F6E7004006402400FF1F2800FF1F93
:104A30000A49097B01F0030121B1012905D00229AE
:104A400008D105E00649086806E00649086803E061
:104A5000054801E0002000BF00BF7047004006404D
:104A60002C00FF1F3000FF1F006CDC0204480078A0
:104A700000F0800010B10348006870470020FCE798
:104A8000005006402C00FF1F014649F69702914254
:104A900001D8002005E0034A914201D8012000E03E
:104AA0000220704700127A0010B50D498979C1F3D0
:104AB000810444B1012C09D0022C0AD0032C0BD163
:104AC00000F010F80AE0FFF701FF07E0FFF79AFF98
:104AD00004E0FFF7ADFF01E0002000BF00BF10BD04
:104AE0000040064010B50C48807900F0400008B93D
:104AF000002010BD00F012F804460748007900F0CD
:104B00001F00401CB4FBF0F40348407900F01F0084
:104B1000183044432046ECE70040064010B5FFF74C
:104B200087FF10BD10B50B494968C1F3014121B1A0
:104B3000012905D0032908D105E0FFF7C7FE06E0EB
:104B4000FFF7D0FF03E0044801E0002000BF00BFF2
:104B500010BD000000800440006CDC0270B504460B
:104B60002068FFF791FF054615482279017821F06A
:104B70000F011143017000BF00BF017821F0A001B7
:104B8000A2791143017000BF0E48407820F03C002C
:104B9000302101EA05110843617908430949487049
:104BA000607958B10648007800F0800030B100BF4D
:104BB0000448807900F002000028F9D070BD0000A0
:104BC000005006400040064010B501460C48007BEE
:104BD00000F00300884201D0012200E000220848D2
:104BE000007B61F30100064C20733AB140F2DC53C4
:104BF00000E000BF181EA3F10103FAD1002010BD90
:104C000000400640F0B5034623488079C0F3810494
:104C10002148807900F001051F48007AC0F3420660
:104C2000B2421FD0012D13D1012C04D01A480078B4
:104C300000F0020060B11848407820F00100164FE3
:104C4000787000BF1448807900F001000028F9D185
:104C50001148007A20F02F000E2707EA4207384358
:104C60000D4F38720C48407861F300000A4F78709D
:104C70003846007820F0030018433870012C02D029
:104C800003F0020030B100BF0348807900F001005A
:104C90008842F9D10020F0BD0040064030B50546FD
:104CA0000C461948407820F0020017494870084621
:104CB000007820F0C40040F08000087000BF124867
:104CC000807900F01C000828F9D10F48407920F0C5
:104CD00040000D49487100BF0B48807900F020006A
:104CE0000028F9D12046FFF765FD0748407940F0DC
:104CF00040000549487100BF0348807900F020005A
:104D00000028F9D0002030BD00400640094A416823
:104D100051640178526861F31142064B5A6000BF3A
:104D20004178054A126861F39342034B1A6000BF51
:104D300070470000008004400070044030B5024617
:104D40000B464FF6FF70002112E0555C68400024CE
:104D50000AE000F0010525B14AF2010585EA60008C
:104D600000E04010651CACB2082CF2DB4D1CA9B26F
:104D70009942EADB30BD000010B52DED048B8AB0FE
:104D80000446B0EE408A18EE100AFBF709FD41EC2C
:104D9000190B8DED009B234606A21E2102A803F0ED
:104DA000F7F802AA05A1002002F066F90AB0BDECEE
:104DB000048B10BD257325660D0A000025730000C5
:104DC00010B50649086800F0CFF900BF00BF00BF6A
:104DD000BFF34F8F00BF00BF00BF10BD58C3FF1F00
:104DE00010B5024800F0C0F910BD000090C1FF1FCF
:104DF00010B50649886A00F0B7F900BF00BF00BFD0
:104E0000BFF34F8F00BF00BF00BF10BD58C3FF1FCF
:104E100010B50649C86A00F0A7F900BF00BF00BF7F
:104E2000BFF34F8F00BF00BF00BF10BD58C3FF1FAF
:104E300010B50649086B00F097F900BF00BF00BF2E
:104E4000BFF34F8F00BF00BF00BF10BD58C3FF1F8F
:104E500010B50649486B00F087F900BF00BF00BFDE
:104E6000BFF34F8F00BF00BF00BF10BD58C3FF1F6F
:104E700010B50649886B00F077F900BF00BF00BF8E
:104E8000BFF34F8F00BF00BF00BF10BD58C3FF1F4F
:104E900010B50649C86B00F067F900BF00BF00BF3E
:104EA000BFF34F8F00BF00BF00BF10BD58C3FF1F2F
:104EB00010B50649486800F057F900BF00BF00BFB1
:104EC000BFF34F8F00BF00BF00BF10BD58C3FF1F0F
:104ED00010B50649886800F047F900BF00BF00BF61
:104EE000BFF34F8F00BF00BF00BF10BD58C3FF1FEF
:104EF00010B50649C86800F037F900BF00BF00BF11
:104F0000BFF34F8F00BF00BF00BF10BD58C3FF1FCE
:104F100010B50649086900F027F900BF00BF00BFBF
:104F2000BFF34F8F00BF00BF00BF10BD58C3FF1FAE
:104F300010B50649486900F017F900BF00BF00BF6F
:104F4000BFF34F8F00BF00BF00BF10BD58C3FF1F8E
:104F500010B50649886900F007F900BF00BF00BF1F
:104F6000BFF34F8F00BF00BF00BF10BD58C3FF1F6E
:104F700010B50649C86900F0F7F800BF00BF00BFD0
:104F8000BFF34F8F00BF00BF00BF10BD58C3FF1F4E
:104F900010B50649086A00F0E7F800BF00BF00BF7F
:104FA000BFF34F8F00BF00BF00BF10BD58C3FF1F2E
:104FB00010B50649486A00F0D7F800BF00BF00BF2F
:104FC000BFF34F8F00BF00BF00BF10BD58C3FF1F0E
:104FD0000146002006E0054A52F820208A4200D10E
:104FE00002E0401C0028F6D000BF70470CC400004F
:104FF00070B505462846FFF7EBFF064951F82040FB
:10500000054901EB144001680122A24011430160EF
:1050100000BF70BD10C400000070044070B50446AD
:105020000D46204600F01AF828B129462046094AC4
:105030001268904704E029462046074A12689047C4
:1050400000BF00BF00BFBFF34F8F00BF00BF00BF56
:1050500070BD00003400FF1F3800FF1F01460868C4
:10506000C00F704700BFEFF31081084672B670475B
:10507000017C01F00F01826891760022816801F5C0
:105080008051037C01EB43118A83816801F58051D3
:10509000037C01EB43118A61C16819B1002141749D
:1050A0008174C174704700002DE9F04705460F4632
:1050B000164618212846FBF7E0FAAF602E743846F2
:1050C00000F042F8804600F037FF8246A8EB0A0065
:1050D00006EB0019164840F82950164901EB081153
:1050E000885710F1800F00D10EE00146002909DB3E
:1050F00001F01F0301229A404B099B0003F1E023BA
:10510000C3F8002100BF00BFA86800F58050297CCB
:1051100000EB411400202060A080E080A060E060EF
:105120002061A082E082A061A083E083BDE8F087D7
:1051300058C3FF1F1CC40000002181700121417071
:1051400000210170C17070470146002006E0054A49
:1051500052F820208A4200D102E0401C0028F6D0FC
:1051600000BF704714C400002DE9F0470446207CBE
:10517000A168C877E06840B9206830B100230122F7
:105180002046D4E90051A84747E0A06800F58050C8
:10519000217C00EB4110D0F81880A06800F5805009
:1051A000217C00EB4110808BC0F3C019E068A8EBB4
:1051B00000084FEA5817B9F1000F01D0FEB206E01F
:1051C0000FB1781E02E094F91400401EC6B294F9A3
:1051D0001100B0420AD194F9130094F914108842D6
:1051E00002D194F9135009E0002507E094F9110069
:1051F000351A002D02DA94F91400054470B2607477
:10520000E07C401B40B2E074206828B12B464A463F
:105210002046D4E900C1E04700BFBDE8F0870000A8
:105220002DE9F04105460C462846FFF78DFF14494D
:1052300051F82070134901EB174001680122BA4070
:105240001143016000BF2E6826F05606A0780421A5
:1052500001EA80006178102202EA011108432178F6
:10526000402202EA81110843E178022202EA410168
:10527000084340F0800006432E60BDE8F081000046
:1052800018C400000070044010B5146800F5805385
:1052900003EB41131C60948800F5805303EB41132A
:1052A0009C80D48800F5805303EB4113DC80946824
:1052B00000F5805303EB41139C60D46800F58053E4
:1052C00003EB4113DC60146900F5805303EB4113D9
:1052D0001C61948A00F5805303EB41139C82D48AAD
:1052E00000F5805303EB4113DC82946900F5805391
:1052F00003EB41139C61002400F5805303EB411341
:105300009C83948B00F5805303EB41139C83D48BD7
:1053100000F5805303EB4113DC8310BDF0B505AC01
:10532000F0CC436001600561B6FBF5FCC0F814C029
:10533000042A14D004DC012A07D0022A1ED109E075
:10534000102A11D0202A19D113E04FF0000C80F858
:1053500008C014E04FF0010C80F808C00FE04FF0D7
:10536000020C80F808C00AE04FF0040C80F808C076
:1053700005E04FF0050C80F808C000E000BF00BF5A
:10538000042C14D004DC012C07D0022C1ED109E01F
:10539000102C11D0202C19D113E04FF0000C80F804
:1053A00009C014E04FF0010C80F809C00FE04FF085
:1053B000020C80F809C00AE04FF0040C80F809C024
:1053C00005E04FF0050C80F809C000E000BF00BF09
:1053D00027B1012F14D0022F1BD108E00FFA84FC53
:1053E000A0F80CC00FFA82FCA0F80AC012E04FF03F
:1053F000000CA0F80CC00FFA82FCA0F80AC009E06B
:105400000FFA84FCA0F80CC04FF0000CA0F80AC002
:1054100000E000BF00BFF0BD016042607047F0B522
:1054200004460D4616461F4604F5805101EB451013
:105430003A46314600F007F9F0BD70B50446E06821
:1054400028B9207C00F00F00A168C87626E0A0688B
:1054500000F58050217C00EB4115607D40F080001C
:105460006075A869C8B1FFF7FDFD0646A068C06871
:10547000227C01219140084060B9A88B00F0800097
:1054800018B1A88B00F0100020B1207C00F00F00B4
:10549000A168C876304600F0F8F800BF70BD2DE96D
:1054A000F05F04468A46A06800F58050217C00EB3E
:1054B0004116E06888BBB08B38B1B08B00F080003B
:1054C00018B941F2ED30BDE8F09F217C002352462F
:1054D000A068FFF7A4FFA06800F58050217C00EBD6
:1054E0004110808B40F00801A06800F58050227CBC
:1054F00000EB42108183A06800F58050217C00EB16
:105500004110808B40F00201A06800F58050227CA1
:1055100000EB421081830020D5E7FFE7FFF7A2FDF3
:10552000834694F9130094F91410884205DB584619
:1055300000F0ABF841F2EC30C5E794F91250E07C92
:10554000401C40B2E074681C4FFA80F894F91400D3
:10555000404501D14FF0000884F81280584600F011
:1055600094F80DB1681E02E094F91400401E4FFA41
:1055700080F9E16801EB451000F056F8E16801EBB5
:1055800045100022514600F05EF8E06800EB45103F
:10559000808B40F00200E16801EB45118883E068F0
:1055A00000EB4810E16801EB451188614D4529D0B9
:1055B000E06800EB4910808B20F0080040F01007F5
:1055C000E06800EB49108783E06800EB4510B169A3
:1055D000884213D1B08B20F0080040F01007B78349
:1055E000B08B00F0100008B100206CE7E06800EB21
:1055F0004810B169884205D1002064E7B06908B15C
:10560000002060E7E36803EB4512217CA068FFF708
:105610003BFE607D00F0800020B1207C00F00F0098
:10562000A168C87600204EE7002101608180C1801A
:105630008160C16001618182C182816108218183B1
:105640000021C183704710B50B6803604B6803618C
:105650000B7A4FF4E06404EA03234C7A04F0070465
:105660002343C3804B8983808B8983820B6983604A
:105670008B8AC3828B8AC38332B18261838B23F08E
:10568000080343F01003838310BD00BF80F310882C
:1056900000BF7047014611F1800F01D10120704712
:1056A0000846002809DB00F01F0301229A40430945
:1056B0009B0003F1E023C3F8002100BF0020EEE7C8
:1056C0002DE9F04F89B083460C469046994601AAD1
:1056D0002146584604F0FCFB424621465846059BAD
:1056E00004F0AAFB07461FB1384609B0BDE8F08FA9
:1056F000484604F0BBFB07460FB13846F5E7019C6E
:10570000029D04EB0800461EB6FBF5F005FB106099
:1057100030B1B6FBF5F000F1010A0AFB05F0461EB8
:105720000021584604F069FB0CE024F07F4040F073
:10573000106008494860584604F0A2FB074607B1CC
:1057400002E02C44B442F0D900BF584604F04EFBAE
:105750003846CAE70000024010B5034603B10AB953
:10576000042010BD0A2927D2DFE801F005080B113B
:1057700014171A1D2023D86810601FE058681060A5
:105780001CE01C7A5868B0FBF4F0106016E0187A40
:10579000106013E01868106010E0002010600DE049
:1057A000586910600AE09869106007E0186A106094
:1057B00004E0586A106001E06A20D2E700BF0020D0
:1057C000CFE70000034603B109B9042070470A4837
:1057D000827802F00300022802D10848086008E03D
:1057E00002F0C000802802D10548086001E00548A9
:1057F00008600020EAE70000000002403CC33CC310
:10580000A55AA55AA53CC35A10B504460CB90420A4
:1058100010BD164AD26CC2F303610F2902D14FF4B6
:10582000802003E0124A32F8112090020022226008
:105830006060012222721203E26000206061A061B8
:10584000204604F0EBFA58B100200A4908600A48E3
:1058500048600A4888600846E061204600F010F879
:1058600000202062606200BFD2E700000080044098
:105870005CC4000018C4FF1F98C3FF1FD8C3FF1FDC
:1058800070B504460CB1E06908B9042070BDE56943
:10589000686804F073FAA86804F060FA02202860CF
:1058A0000020F3E72DE9F04188B080460D4614460C
:1058B0001E461CB9042008B0BDE8F0816A4629469E
:1058C000404604F005FB324629464046039B04F05F
:1058D000B3FA07460FB13846EDE7009D0021404678
:1058E00004F08BFA20E001CC134988600398042867
:1058F00005D125F07F4040F0C06048600AE0039881
:10590000082807D101CC0C49C86025F07F4040F041
:10591000E0604860404604F0B3FA074607B105E08E
:10592000039805440398361A002EDCD100BF404688
:1059300004F05CFA3846BEE7000002402DE9FF4F54
:1059400089B00C46924601AA2146099804F0C0FA93
:1059500052462146069B099804F06EFA8146B9F139
:10596000000F03D048460DB0BDE8F08F01AA2146D4
:10597000099804F0ADFA019C039F60427942084007
:105980004542A54200D13D44564625E0A5EB04081A
:10599000B04500D9B0460698B8FBF0FB24F07F4034
:1059A00040F080700E4948604FEA0B410C98C0B23D
:1059B00041EA002040F0FF0009498860099804F09E
:1059C0005FFA8146B9F1000F01D04846CBE7A6EB5C
:1059D000080644443D4400BF002ED7D10020C2E752
:1059E000000002402DE9F04F89B082460C46174670
:1059F0001D46DDE912B8DDF850901DB9042009B04C
:105A0000BDE8F08F01AA2146504604F061FA3A46FB
:105A100021465046089B04F00FFA06460EB1304668
:105A2000EDE7019C25E024F07F4040F00070134931
:105A300048606FF07F4040EA0B6088602868C8606B
:105A4000504604F01DFA06465EB1B8F1000F01D0D1
:105A5000C8F80040B9F1000F02D00020C9F80000DA
:105A600009E008983F1A0898800805EB8005089817
:105A70000444002FD7D100BF3046C0E700000240E9
:105A800010B50C4800F0BEF800F4007088B105F0C5
:105A900011F94FF40071074800F036F8054800F09E
:105AA0000BFA0221042001F01FF803A1002001F0ED
:105AB000E3FA10BD0080034046544D305F49525117
:105AC00048616E646C65720D0A00000010B50848EC
:105AD00000F098F800F4007040B14FF400710448F1
:105AE00000F012F803A1002001F0C6FA10BD00007A
:105AF0000090034046544D315F49525148616E64F5
:105B00006C65720D0A00000001F400721AB102689F
:105B100022F08002026001F480721AB1426F22F01A
:105B20008002426701F480621AB1C26E22F08002E4
:105B3000C266026DCBB29A430265704770B50446E7
:105B4000206820F018002060204600F049F806493F
:105B500051F82050054901EB154001680122AA4087
:105B60009143016000BF70BD8CC400000070044010
:105B700030B5CAB2002301F400741CB1046844F0CB
:105B80004004046001F480741CB1446D44F080044E
:105B900044650FE002F001044CB100F10C0454F82C
:105BA000334044F0400500F10C0444F833505C1CD1
:105BB000E3B25208002AEDD130BD002101704170DE
:105BC0008021416000218160017341730121817353
:105BD00000210161416101764176817670470000C4
:105BE00001460422002006E0054B53F820308B428A
:105BF00000D102E0401C9042F6D300BF7047000085
:105C00007CC40000014600200A6802F080020AB14C
:105C100040F400704A6F02F080020AB140F48070D4
:105C2000CA6E02F080020AB140F480600A6DD2B2FE
:105C3000104370472DE9F04105460C46207900F0ED
:105C4000F00010B90120BDE8F0812846FFF7C8FF39
:105C5000234951F82070234901EB174001680122C4
:105C6000BA401143016000BF207B602101EA40106F
:105C7000401C40F0040068652846616800F034F874
:105C80002846A16800F088F8207800F00700286016
:105C90006078C02101EA8010A17E4FF4007202EA10
:105CA00041210843C5F88400207EE865607E2867AE
:105CB0006069E866A07BC02101EA8010217C01F0C8
:105CC0003F010843A866EE6F26F47066607B4FF4D0
:105CD000706101EA00200643EE670020B3E7000090
:105CE0008CC400000070044070B500240022002322
:105CF000836D43F00803426E00BF07E0E5006D1DB1
:105D0000012606FA05F52A43651CECB21E4EB04288
:105D100001D1082610E01D4EB04201D102260BE051
