:020000040000FA
:1000000000000320DD040000F50400008152000020
:10001000F9040000FB040000FD04000000000000E3
:1000200000000000000000000000000025040000A7
:10003000010500000000000079040000DD650000FB
:100040004D4000000B0500000F05000013050000E7
:10005000170500001B0500001F0500002305000018
:10006000270500002B0500002F05000033050000C8
:10007000370500003B0500003F0500004305000078
:10008000470500009B0500009B0500009B05000044
:100090009B0500009B0500009B0500009B050000E0
:1000A0004B0500004F0500005305000057050000F8
:1000B0005B0500005F0500009B0500006305000074
:1000C00067050000F1670000B567000073050000D8
:1000D000770500007B0500007F050000951F0000EC
:1000E0009B0500009B050000654B0000B14B000024
:1000F0009B0500009B0500009B0500009B05000080
:100100009B0500009B0500009B0500009B0500006F
:10011000715C00009B0500009B0500009B05000032
:100120009B0500009B0500009B0500009B0500004F
:100130009B0500009B0500009B0500009B0500003F
:100140009B05000083050000870500008B0500006B
:100150008F050000930500009B0500009B05000033
:100160009B0500009B050000970500009B05000013
:100170009B0500009B0500009B0500009B050000FF
:100180009B0500009B0500009B0500009B050000EF
:100190009B0500009B0500009B0500009B050000DF
:1001A0009B0500009B0500009B0500009B050000CF
:1003F0009B0500009B0500009B050000FFFFFFFF21
:10040000FFFFFFFFFFFFFFFFFFFFFFFFFEFFFFFFFD
:10041000DFF80CD000F09AFC00480047659000001F
:10042000000003202A4B19680868B0E8F04F80F3F9
:100430000988BFF36F8F4FF0000080F31188704779
:100440000000000006480068006880F3088862B673
:1004500061B6BFF34F8FBFF36F8F00DF00BF00BFE8
:1004600008ED00E0DFF80C00016841F47001016064
:10047000704700BF88ED00E0EFF30980BFF36F8F96
:10048000134B1A681EF0100F08BF20ED108A20E9E8
:10049000F04F106008B44FF0200080F31188BFF3D4
:1004A0004F8FBFF36F8F0AF05DF84FF0000080F3BD
:1004B000118808BC19680868B0E8F04F1EF0100FEA
:1004C00008BFB0EC108A80F30988BFF36F8F7047C4
:1004D0004C00FF1FEFF305807047000072B63048F4
:1004E000304901600A6882F308882F48804762B665
:1004F0002E480047FEE7FEE7FEE7FEE7FEE7FEE7E1
:10050000FEE7FEE7FEE72A4800472A4800472A4858
:1005100000472A4800472A4800472A4800472A48F7
:1005200000472A4800472A4800472A4800472A48E7
:1005300000472A4800472A4800472A4800472A48D7
:1005400000472A4800472A4800472A4800472A48C7
:1005500000472A4800472A4800472A4800472A48B7
:1005600000472A4800472A4800472A4800472A48A7
:1005700000472A4800472A4800472A4800472A4897
:1005800000472A4800472A4800472A4800472A4887
:1005900000472A4800472A4800472A4800470000E9
:1005A00008ED00E0000000001166000011040000EA
:1005B0002D4000001D4100003D4100005D41000054
:1005C0007D4100009D410000BD410000DD41000073
:1005D000FD4100001D4200005D4000007D40000024
:1005E0009D400000BD400000DD400000FD400000D7
:1005F0009B050000A1520000B9520000A963000051
:10060000C16300005D5300003153000071670000BA
:100610009B050000D96700009B0500007968000079
:100620009B050000BD6800009B050000D963000029
:10063000016900009B050000456900009B05000062
:10064000D15200009B05000040EA01039B0703D044
:1006500009E008C9121F08C0042AFAD203E011F801
:10066000013B00F8013B521EF9D27047D2B201E0C3
:1006700000F8012B491EFBD270470022F6E710B5A7
:1006800013460A4604461946FFF7F0FF204610BD00
:10069000034611F8012B00F8012B002AF9D1184666
:1006A00070472DE9FE4F81EA030404F0004421F075
:1006B000004100944FF0000B23F0004350EA010486
:1006C0005ED052EA03045BD0C3F30A54C1F30A5567
:1006D0002C44A4F2F3340194A0FB0254C1F313019F
:1006E00041F48011C3F3130343F4801301FB02446C
:1006F00000FB034E840A970A44EA815447EA835771
:10070000A4FB076802958D0A05FB07854FEA932C29
:1007100004FB0C542705029D4FEA065847EA16379A
:10072000B5EB08056EEB070C870E920E47EA8117B2
:1007300042EA8312A7FB0201B6EB0B0164EB000453
:100740002B0D43EA0C335E1844EB1C50DA4651463D
:10075000E7FB0201C5F313044FEA0B3343EA1453DA
:100760004FEA0432019C43EA0603A4F10C0402940C
:10077000009CCDE900B400F0CFF803B0BDE8F08FE5
:1007800000200146F9E70EB540F233410291002105
:10079000CDE900110A460B4600F0BEF803B000BDDB
:1007A00000F0004230F000400AD0C10D01F5607148
:1007B000C0F3160042EA0151C208400711437047D6
:1007C00000200146704701F0004330B421F00041A1
:1007D00050EA010206D00A0DA2F56072C1F31301BE
:1007E000002A02DC30BC00207047440F44EAC104F8
:1007F000C100E01830BC00EBC25000F047B830B583
:100800000B46014600202022012409E021FA02F5CE
:100810009D4205D303FA02F5491B04FA02F5284468
:10082000151EA2F10102F1DC30BD2DE9F05F054695
:10083000002092469B4688460646814640241BE09F
:10084000284641464746224600F0A1FA53465A46FA
:10085000C01A914110D311461846224600F088FA7A
:100860002D1A67EB01084F4622460120002100F0B7
:100870007FFA17EB00094E41201EA4F10104DFDCD2
:10088000484631462A464346BDE8F09F0029A8BFA6
:100890007047401C490008BF20F00100704710B4A9
:1008A000B0FA80FC00FA0CF050EA010404BF10BC5E
:1008B000704749B1CCF1200421FA04F411FA0CF18B
:1008C00018BF012121430843A3EB0C01CB1D4FEAC4
:1008D00000614FEA102042BF002010BC704700EBBF
:1008E000C35010440029A4BF10BC7047401C4900ED
:1008F00008BF20F0010010BC704710B5141E73F142
:10090000000408DA401C41F1000192185B411A43CF
:1009100001D120F0010010BD2DE9F04D92469B461B
:1009200011B1B1FA81F202E0B0FA80F220329046C1
:1009300000F01EFA04460F4640EA0A0041EA0B01A5
:1009400053465A46084313D0114653EA010019D0C2
:10095000C8F14002504600F01AFA05460E465046CD
:100960005946424600F004FA084305D0012004E04D
:1009700020463946BDE8F08D0020054346EAE07682
:100980002C4337430A986305E40AA0EB08000022D1
:10099000FD0A44EA47540A3002D500200146E9E73F
:1009A000010510196941DDE9084500196941BDE8F3
:1009B000F04DA2E72DE9FE4F804681EA0300C00F0B
:1009C0000C46009021F0004123F00045B8EB0200F6
:1009D000A94105D24046214690461C460B46024698
:1009E00023F00040104347D0270DC7F30A00C3F39C
:1009F0000A510290401A019040286BDAC3F31300A9
:100A000040F4801B0098924620B10023D2EB030AE9
:100A100063EB0B0B01985946C0F14002504600F0C1
:100A2000A7F906460D4650465946019A00F0BFF90F
:100A300010EB08006141002487EA115284EAE77351
:100A40001A4340D0009A62B3019A012A4FEA075232
:100A500015DC001B61EB02014FF0004202EA075275
:100A6000CDE90042001C41F5801132462B46FFF7CC
:100A700053FF03B0BDE8F08F40462146F9E7001B65
:100A800061EB0201001C41F5801300185B41201846
:100A9000A2F5001747EB030140EAD570B6196D4186
:100AA00011E06D084FEA360645EAC0754FEA075275
:100AB000001B61EB0201001C41F5801149084FEA5F
:100AC00030000019514132462B4603B0BDE8F04FCB
:100AD000FFF713BF0098012240000023D0EB020271
:100AE00063EBE073009821464FEAE074B8EB000036
:100AF00061EB0401E9E783F000435BE781F000412B
:100B000058E72DE9F04D81EA030404F0004B21F091
:100B1000004514464FF0000A23F0004150EA050258
:100B200020D054EA01021DD0C5F30A570246C5F38E
:100B30001303C1F31300C1F30A5640F4801543F4C4
:100B40008013A7EB0608101BD64608F2FD3873EB9E
:100B5000050002D308F1010801E092185B41B8F1E9
:100B6000000F03DA00200146BDE8F08D00204FF4AD
:100B70008011064684460EE0171B73EB050705D36C
:100B8000121B63EB050306434CEA010C49084FEACC
:100B9000300092185B4150EA0107EDD152EA0300A0
:100BA00012D082EA040083EA0501084305D0101B35
:100BB000AB4106D20122002306E000224FF00043A1
:100BC00002E06FF0010253101AEB06004CEB0851E3
:100BD00010EB0A0041EB0B01BDE8F04DFFF78DBEB5
:100BE00070B521F0004303430CD0C1F30A55002433
:100BF000D5EB040564EB0403D617AD1AB34102DB51
:100C00000020014670BD201841EB025170BD00006C
:100C10002DE9F041054621F000400C46284309D05B
:100C2000C4F30A5040F23341884205DD284621468C
:100C3000BDE8F0812846FBE740F2FE31884210DC37
:100C40000CDB4FEA043040EA155050EA053105D07C
:100C5000104804F0004101430020E9E7002001466C
:100C6000E6E7A0F233404642C6F14002284621465C
:100C700000F07EF80746884628462146324600F0B6
:100C800086F843463A46FFF738FE3246BDE8F04163
:100C900000F06EB80000F03F0EB5C10F80EAE070C2
:100CA0000844CA07002140F233438DE80E000A468B
:100CB0000B46FFF731FE03B000BDC1F30A52C1F38A
:100CC000130140F2FF3341F480119A4202DA00200E
:100CD0000146704740F233439A42A2F2334202DCAB
:100CE000524200F054B800F043B8000030B5041E82
:100CF00071F1000404DB4FF00044404264EB010159
:100D0000141E73F1000405DB1C464FF000435242F1
:100D100063EB04038B4208BF824230BD30B5041E32
:100D200071F1000404DB4FF00044404264EB010128
:100D3000141E73F1000405DB1C464FF000435242C1
:100D400063EB0403994208BF904230BD064C074D47
:100D500006E0E06840F0010394E80700984710348B
:100D6000AC42F6D3FFF758FB10E3010040E301006B
:100D7000202A04DB203A00FA02F10020704791405B
:100D8000C2F1200320FA03F3194390407047202A50
:100D900004DB203A21FA02F00021704721FA02F325
:100DA000D040C2F120029140084319467047202AE2
:100DB00006DBCB17203A41FA02F043EAE07306E083
:100DC00041FA02F3D040C2F1200291400843194693
:100DD00070472DE9F04D00231A461B1A8A4103DBA8
:100DE00000200146BDE8F08DC1F30A52C1F31301A2
:100DF00041F480154FF0000BD10702D100186D416E
:100E0000521E0027044640F2FF11384601EB620AE9
:100E10003E468046024600204FF48011FFF7B7FFA0
:100E2000C2197141BB1846EB0100B4EB030C75EB22
:100E3000000C04D3E41A65EB000517460E4624198E
:100E400008F101006D4180463428E3DDF91946EBD5
:100E50000600091BA84103D24FF0FF32134601E000
:100E6000002213461BEB070046EB0A51BDE8F04D8C
:100E7000FFF743BD0023B3EB920F1FD093085B42F3
:100E800090ED000A0133B0EEC00A81ED000A90ED4A
:100E9000010AB0EEC00A81ED010A90ED020AB0EE3F
:100EA000C00A81ED020A90ED030A00F11000B0EED5
:100EB000C00A81ED030A01F11001E1D112F0030231
:100EC00008BF7047524200BF90ED000A013200F1A6
:100ED0000400B0EEC00A81ED000A01F10401F3D173
:100EE00070470000B0B5E1B14FF0000C02EB4C04CC
:100EF00032F81C300CF1020C64888C4523F003039B
:100F000024F0030450F803E00559C55040F804E00C
:100F100003440444D3F804E065685D60C4F804E069
:100F2000E4D3B0BD2DE9F0410588984616460C463D
:100F30000746012A0CD1E5B3201D294690ED000A91
:100F40000139B1EE400A80ED000A00F10800F5D148
:100F5000FF2D0CDDB5F5806F10DBB5F5805F22D07D
:100F6000B5F5006F11D0B5F5806F17D021E03F2D9A
:100F700010DC102D12D0202D07D01AE0B5F5807F9F
:100F800003D0B5F5007F0ED013E03846214600F0BF
:100F900007F90EE0402D06D0802D0AD138462146B3
:100FA00000F030F805E07A6820462946012300F079
:100FB000BDFCB8F1000F04D0BA68B9892046FFF72C
:100FC00091FF012E1CD100EE105A002DB8EE400A00
:100FD00008BFBDE8F081B7EE001A81EE000A00BF3D
:100FE00094ED001A94ED012A013D20EE011A20EE45
:100FF000422A84ED001A84ED012A04F10804EFD19D
:10100000BDE8F0812DE9F0472DED088B8046008882
:101010000023D8F8042001EB800A4FEA5009B3EB13
:10102000D00F00F0AD80C70801EB890C0AEB890EE8
:101030007C420027C8190AEB07060CEB07030EEBEE
:101040000705013496ED000A90ED004A96ED011A6D
:1010500090ED015A96ED022A90ED026A96ED033A60
:1010600090ED037AD5ED000AD5ED011AD5ED022AEF
:10107000D5ED033AD3ED004AD3ED015AD3ED026A20
:10108000D3ED037A34EE00BA37EE038A36EE029AD5
:1010900035EE01AA34EE400A35EE411A36EE422A08
:1010A00037EE433A33EEE76A32EEE67A80ED00BA85
:1010B00080ED01AA80ED029A80ED038A34EEA0BA99
:1010C00035EEA1AA37EEA38A36EEA29A02EB07000C
:1010D00071EEE51A70EEE40A07F1100783ED00BA2D
:1010E00083ED01AA83ED029A83ED038A90ED008AD5
:1010F00090ED019A20EE094A21EE085A21EE091AD4
:1011000020EE080A35EE444A30EE010A21EE891A33
:1011100020EE885A61EE881A60EE890A86ED014A4F
:1011200086ED000A35EE010A30EEE11A85ED010A7E
:1011300085ED001A90ED020A90ED031A22EE014AA5
:1011400023EE005A23EE013A22EE002A35EE444AFD
:1011500032EE032A26EE013A27EE005A26EE000A66
:1011600027EE011A86ED034A86ED022A35EE032AA0
:1011700031EE400A85ED032A85ED020A7FF45AAF6D
:1011800008464946022300F0D1FBD8F80420504617
:1011900049460223BDEC088BBDE8F04700F0C6BB12
:1011A0002DE9F04F81B02DED088B92B0B0F800C062
:1011B0000590406891ED000A91ED011A4FF0000989
:1011C0004FF0000B4FEA5C0206906FF001000F91A8
:1011D00001EB820300EB9C0703EB8205A9EB5700B0
:1011E0006FF0030793ED004A93ED015A95ED002A45
:1011F00095ED013A05EB8204119007EB820007EBB5
:10120000C20E6FF0070794ED007AD4ED010A07EBE8
:101210000216109031EE036A70EE021A31EE431A94
:1012200030EE420A0E9602EB420676EE052A71EE89
:10123000843A31EE442A30EE053A31EE041A30EEAB
:10124000450A36EE456A71EEC41A07EB86004FEA8E
:101250009C074FEA860A73EE873A72EEA02A32EEB6
:10126000072A33EE603A31EE471A30EE200A0D902D
:1012700001970293049597000394C1ED003AC1EDE4
:10128000012A83ED003A83ED012A31EEC73A36EEAA
:10129000602AD10085ED003A85ED012A84ED000A2F
:1012A00084ED011A0024E0E00F98089407920B9156
:1012B0005A46CB46109900EB0E0400EB01090D993C
:1012C0000A97CDF830E0CDF824A0D4ED002A14ED33
:1012D000015ADDF838A0D9ED001A59ED017A471806
:1012E0000839D7ED010A00EB0A0ED7ED006A07981E
:1012F000AAF1080ADEED014A9EED004A71EEA03A1D
:1013000037EEA69A73EEA25A75EEA45AC9ED005AAA
:1013100054ED015A9EED008A79EE255A75EE885AF1
:1013200049ED015AD9469346D3ED035A93ED028A0B
:1013300009F1080902F1180B26EE25AA27EE08BAD2
:1013400027EE257A26EE086A3BEE0AAA36EE476AB1
:1013500032EEE47A85ED02AA85ED036A31EEE06AA9
:1013600077EEE60A76EE451A70EE876A71EE841A19
:1013700066EE887A21EEA5AA66EEA55A61EE881A75
:101380007AEE677A71EEA51AC4ED007A44ED011A7F
:10139000089CD6ED051AD6ED045A103462EE216A87
:1013A00063EE257A23EE213A22EE252A77EEA66A0D
:1013B00032EE432A33EEE23ACCED026A8CED032A98
:1013C00039EE452A33EE643A32EE442A63EE653A4A
:1013D00023EE213A62EE212A22EE252A73EEE22A3A
:1013E00033EE422AC7ED012A87ED002A0A9F90EDCD
:1013F000072A90ED063A1098083760EE021A61EE5F
:10140000032A21EE021A20EE030A083872EEA11A0E
:1014100030EE410A37EE601AC8ED021A88ED030A71
:1014200034EE450A21EE034A21EE021A30EE460A56
:1014300020EE025A20EE030A35EE444A30EE010A4D
:101440008EED014A8EED000ADDF830E01090119823
:10145000AEF1080E013011900D910B99CDF838A026
:10146000DDF824A008310AF1080A0F9B119803EB5C
:10147000090203EB010CDD1903EB0A08069B0028A7
:101480009CED020A92ED022A95ED024A98ED026A5D
:101490009CED031A92ED033A95ED035A98ED037A09
:1014A00003EB040672EE000A73EE013A33EE411AC2
:1014B00032EE400A70EE841A31EE042A70EEC40A4D
:1014C00030EE453A31EE444A71EE861A33EE071A91
:1014D00030EEC63AC2ED021AD5ED031AD8ED032A52
:1014E00073EEA11A71EEA21AC2ED031A73EEC51AB9
:1014F00030EE055A32EE460A03EB0B024B4434EE53
:10150000066A31EEC72A35EE477A7FF4CDAE93ED09
:10151000024A93ED035A0F98042367EE050A66EE1C
:10152000041A26EE055A27EE044A34EE054A31EE37
:10153000E06A85ED024A85ED036A019D96ED044A55
:1015400096ED055A294623EE056A22EE047A23EE2B
:10155000043A22EE052A33EE022A37EE464A8CED93
:10156000022A8CED034A92ED062A92ED073A069A7A
:1015700021EE034A20EE025A21EE021A20EE030A5F
:1015800031EE000A35EE442A88ED020A88ED032A7E
:1015900000F0CCF9059C029829460423626800F00B
:1015A000C5F9626804982946042300F0BFF962680F
:1015B00003982946042312B0BDEC088B01B0BDE8A6
:1015C000F04F00F0B3B900002DE9F0412DED028B92
:1015D0000446002090460D46B0EB920F6DD04FEAC6
:1015E0009800474294ED000A94ED011A21EE011A89
:1015F00020EE000A30EE018AB0EE480A06F054FCF4
:10160000B4EEC00AF1EE10FA03D7B0EE480A06F0C5
:101610004BFC85ED000A94ED020A94ED031A21EECD
:10162000011A20EE000A30EE018AB0EE480A06F0F8
:101630003BFCB4EEC00AF1EE10FA03D7B0EE480A54
:1016400006F032FC85ED010A94ED040A94ED051ACA
:1016500021EE011A20EE000A30EE018AB0EE480AAF
:1016600006F022FCB4EEC00AF1EE10FA03D7B0EE99
:10167000480A06F019FC85ED020A94ED060A94ED7D
:10168000071A21EE011A20EE000A30EE018AB0EEB0
:10169000480A06F009FCB4EEC00A05F11006203431
:1016A000F1EE10FA03D7B0EE480A06F0FDFB85ED27
:1016B000030A0137354695D100E02E4618F00300A5
:1016C0001ED0454294ED000A94ED011A21EE011A54
:1016D00020EE000A30EE018AB0EE480A06F0E4FB84
:1016E000B4EEC00A371DF1EE10FA03D7B0EE480A87
:1016F00006F0DAFB86ED000A083401353E46E1D1FA
:10170000BDEC028BBDE8F081F0B54C1E4FF0000C33
:1017100090ED000A00F1040EBCEB940F40D0A70836
:10172000012625464FF0000C66F301057E42042792
:101730009EED001A9EED012A9EED023A9EED034AAF
:1017400001360EF1100EB4EEC10AF1EE10FABCBF74
:10175000A7F1030CB0EE410AB4EEC20AF1EE10FAA2
:10176000BCBFA7F1020CB0EE420AB4EEC30AF1EE20
:1017700010FABCBFA7F1010CB0EE430AB4EEC40AE4
:10178000F1EE10FAB4EEC40AB8BFBC460437F1EE6D
:1017900010FAB8BFB0EE440A002EC9D100EB850E96
:1017A00014F0030012D040429EED001A0EF1040E18
:1017B000B4EEC10AF1EE10FAB8BF01EB000C00F173
:1017C0000100B8BFB0EE410A0028EDD182ED000A59
:1017D000C3F800C0F0BD00000023B3EB910F22D08E
:1017E00080B58B089FED1C0A21F0030CC3F1000E9D
:1017F000034600BF93ED001A93ED012A93ED023AE0
:1018000093ED034A10331EF1010E30EE010A30EE63
:10181000020A30EE030A30EE040AEBD100EB8C0032
:10182000BDE8804001E09FED0C0A11F0030309D0F0
:101830005B4200BF90ED001A013300F1040030EE6E
:10184000010AF7D101EE101AB8EE411A80EE010A32
:1018500082ED000A704700BF00000000F0B54C1E8A
:101860004FF0000C90ED000A00F1040EBCEB940F59
:1018700040D0A708012625464FF0000C66F301056D
:101880007E4204279EED001A9EED012A9EED023A4B
:101890009EED034A01360EF1100EB4EEC10AF1EED0
:1018A00010FAC4BFA7F1030CB0EE410AB4EEC20AAD
:1018B000F1EE10FAC4BFA7F1020CB0EE420AB4EE8A
:1018C000C30AF1EE10FAC4BFA7F1010CB0EE430A4F
:1018D000B4EEC40AF1EE10FAB4EEC40AC8BFBC46B6
:1018E0000437F1EE10FAC8BFB0EE440A002EC9D199
:1018F00000EB850E14F0030012D040429EED001A5A
:101900000EF1040EB4EEC10AF1EE10FAC8BF01EBFD
:10191000000C00F10100C8BFB0EE410A0028EDD173
:1019200082ED000AC3F800C0F0BD00002DE9F04FC1
:1019300081B02DED108BA0B09FED050ACDE90332EB
:101940008C46019004301B910290084602E000BFD3
:10195000F304353F4FEADC064FEACC074FF0000BAB
:10196000F30006EB860235010896A3EBDC00D100FC
:10197000C0001A9006EB46007601C4000001224622
:10198000029CCDE91E7CCDE90C01CDE91C6500BFB0
:101990000C9804EB03091F461A9B04EB010826442C
:1019A000254404EB020E14ED017ADDF87CC01146EB
:1019B00056ED010A1EED012A18ED013A19ED014A12
:1019C00015ED016A04EB030A20443B46E3441AED9B
:1019D000011A10ED015A77EE204A74EE032A37EE11
:1019E000607A72EE011A76EE053A32EE411A34EE62
:1019F000432A36EE455A72EEA15A74EEA36A34EECB
:101A0000E33A72EEE11A76EEA57A76EEE55A44ED07
:101A1000017A46ED015ADAED005ADEED006AD8EDA2
:101A2000007A99ED008A90ED009A95ED00AA96ED66
:101A300000BA94ED00CA36EEA5DA38EE27EA3AEE9F
:101A400009FA7CEE0B8A36EEE54A78EE673A72EEDA
:101A5000415A32EE011A3CEE4B6A7EEE0D9A78EE58
:101A60008FAA3EEE4DDA73EE842A78EECF6A65EEE9
:101A7000800A33EEC42A21EE001A7AEEA9BA73EE78
:101A80000D4A7AEEE99A33EE4D3A62EE802A76EE0E
:101A9000E15A71EEA61A22EE002A37EE604AC4ED32
:101AA00000BAC6ED009A45ED014A7AEE494A00EDCA
:101AB000013A37EE203AC5ED005AC0ED001A76EE35
:101AC000021A36EE422A74EEA27A34EEE27A73EE0D
:101AD000275A33EE673A74EE070A34EE474A49ED67
:101AE000015A0AED013A35EE013A48ED010A0EEDD0
:101AF000014A35EE411A31EEC37A33EE213A32EE25
:101B0000414A31EE021A89ED007A8AED003ADDE9A8
:101B10001C651E9F1B980D9988ED004A8EED001ADA
:101B20003C448345FFF434AFBCF1400FC0F0C981A1
:101B30000398DDF804800025012707920E9380B2F8
:101B400006900898C0EBC000C00005900698049C61
:101B5000CDF824800A97DFEDDE2A054405EB8503E6
:101B600005EB45020B95D900D00004EBC30304310B
:101B7000043004EB010E04EB451104EB000CC5EB43
:101B8000C50091ED000A04EB0511DCED006AC446C6
:101B9000DEED005ADDF81C808DED1A0A91ED000A89
:101BA00004EBC5018DED190A91ED000A04EBC001AB
:101BB000C00004308DED180A91ED000A04EB02110B
:101BC00020448DED170A91ED000A110104EBC202C9
:101BD00004318DED160A93ED000AEB0004EB0109C8
:101BE0006901043304318DED150A92ED000A2A01D2
:101BF0002344043222440C448DED140A94ED000A6F
:101C00008DED130A92ED000A8DED120A93ED000A94
:101C10003B468DED110A90ED000A8DED100A99ED0D
:101C2000000A8DED0F0ADDE90C15059F1D980CEBE0
:101C3000060B0CEB01090CEB05020CEB070E9CEDFF
:101C400002DA9CED03EADDED1A3ADDED134A1C9E43
:101C50009BED02FADEED027A92ED029A99ED02BA5C
:101C60000CEB000A0E989AED02CA7DEE0FBA0CEB4F
:101C700000040CEB080090ED028A94ED02AA7CEEC1
:101C80000BAA7BEEAADA78EE278A7AEE099A78EE2A
:101C9000677A3AEE498A79EEA8CA38EE670A78EE92
:101CA000277A79EEE88A7DEEACEA7DEEECCA20EE8A
:101CB000220A67EEA27ACCED02EA63EEAC0A64EE89
:101CC000ACCADBED03DA9EED039A90ED03AAD2EDE8
:101CD00003EAD4ED03FA99ED031A9AED032A32EEE2
:101CE000013A3EEE2D4A7AEE099A3FEEAE8A32EE86
:101CF000411A38EE295A34EE036A34EE433A38EE8C
:101D0000698A3BEEEA4A36EE457A36EE055A3AEEF5
:101D1000496A3FEEEE9A39EE46AA64EE871A39EE2A
:101D2000066A23EE877ADDED124ADDED193A8CED75
:101D3000035A34EE085A3DEE4F9A34EE484A26EEE6
:101D4000222A37EE6C6A30EEA17A73EE680A7CEED6
:101D50004B1A38EE833A3EEE6DCA2AEE22AA39EECD
:101D6000008A39EE400A24EE85BA23EEA0DA23EE8B
:101D7000855A64EEA00ADDED0F4ADDED163A8BEDD3
:101D8000027A8BED036A31EE02EA31EEA77A31EE88
:101D9000421A31EEE72A7CEE4A1A3DEE4B6A30EEEB
:101DA000855A3CEE0ABA38EE0EFA38EE4E8A70EEDC
:101DB000017A30EE410A32EE211A64EE840A23EEF3
:101DC00083DA8AED025A23EE844ADDED183A24EED6
:101DD000833A7BEE478A8AED036A37EE0B7A3DEE53
:101DE000605ADDED110A33EE043A23EEA86A23EEC1
:101DF0008FDA89ED023ADDED103A89ED035A20EED3
:101E00008F4A60EEA80A36EE443A3DEE204ADDEDF8
:101E1000170A23EE885A84ED024A84ED033A20EE35
:101E2000876A60EE880A23EE877A31EEC28A30EE46
:101E3000874ADDED150A36EE453A25EEA75A25EE1E
:101E4000887A8EED024A8EED033A26EE804A20EE25
:101E5000886A60EEA70A36EE452A9DED146A30EED8
:101E6000873A82ED023A82ED032A26EE015A26EEE7
:101E7000811A26EE000A30EE010A35EE442A80ED82
:101E8000020A80ED032A1E9884441F9803441B987D
:101E90008342FFF4CBAE0A9FDDF8248008980B9DA7
:101EA000013708F108088742FFF450AE0398DDF8C7
:101EB00020C09FED070AC00003901F983F283FF6FF
:101EC00049AD20B0BDEC108B01B0BDE8F08F00BF74
:101ED000F304353FB0B52DED028B15460022B2EB71
:101EE000910F25D08A089FED2A0A0446534221F01B
:101EF000030200BF94ED001A94ED012A94ED023A1A
:101F000094ED034A1034013321EE011A22EE022A25
:101F100030EE010A23EE031A30EE020A24EE042A00
:101F200030EE010A30EE020AE4D100EB820001E05B
:101F30009FED170A11F003020AD0524290ED001AE9
:101F4000013200F1040021EE011A30EE010AF5D150
:101F500001EE101AB8EE411A80EE018AB5EEC08A81
:101F6000F1EE10FA02DA9FED0A0A0CE0B0EE480A30
:101F700005F09AFFB4EEC00AF1EE10FA03D7B0EE06
:101F8000480A05F091FF85ED000ABDEC028BB0BD5B
:101F90000000000010B500240021044800F066F89D
:101FA0000446A0B200F0E2FA10BD000000B0034009
:101FB00078B5044600260025206A00F0400020B1D4
:101FC0000126206A20F040002062606A40F0C000D4
:101FD000606207E0204600F07BF800F0400008B1A6
:101FE000012507E00021204600F046F800F08000BF
:101FF0000028EFD000BF206900901EB1206A40F099
:1020000040002062204600F063F800F0400000B17C
:1020100001250DB1284678BDE06CA16C0844616CC7
:102020000844216C0844E16B0844A16B084400900B
:102030004FF40041009841EA500000900098E0629F
:10204000E06EA16E0844616E0844216E0844E16DA3
:102050000844A16D084400904FF40041009841EA03
:1020600050000090009820630020D4E7024602F15F
:10207000100050F8210070470246002052F821302D
:1020800003F080030BB140F0800070470021017025
:1020900003214170012181700321C170012101716F
:1020A0000421417100218171C171017270470000EA
:1020B0000146002006E0054A52F820208A4200D15D
:1020C00002E0401C0228F6D300BF704778B500003C
:1020D000014600200A6A02F080020AB140F0800046
:1020E0004A6A02F040020AB140F040007047000026
:1020F0002DE9F04105460C462846FFF7D9FF264951
:1021000051F82070254901EB174001680122BA40BF
:102110001143016000BF607800F0030021790C22B8
:1021200002EA810140EA01066079042801D046F004
:102130001006E078602101EA40100643E07908B11A
:1021400046F08006AE60E86820F00F06607904284B
:1021500003D0607900F003000643A07908B146F08F
:102160000406A07808B146F00806EE60286A20F060
:102170000306207800F0030006432E62207A20B187
:10218000686A40F00800686203E0686A20F00800AE
:102190006862BDE8F081000080B500000070044076
:1021A00010B50346147804F01F0054790CB140F0C8
:1021B000200014790CB140F0400043F8210010BD1C
:1021C00021B9C26822F01002C26003E0C26842F086
:1021D0001002C260704700002DE9F0478AB0002568
:1021E00000260027A9464FF4004007F04FFD814626
:1021F0004FF4804007F04AFD05464FF4004007F0D9
:1022000045FD06464FF4804007F040FD0746D348A1
:10221000D0F8090000EE100AB5EEC00AF1EE10FA8F
:102220000BDDCE48D0F8090000EE100AF7EE000AE8
:1022300080EE801A8DED071A03E0B7EE000A8DEDEF
:10224000070AC648D0F80D0000EE100AB5EEC00A25
:10225000F1EE10FA0BDDC148D0F80D0000EE100AC7
:10226000F7EE000A80EE801A8DED081A03E0B7EE53
:10227000000A8DED080AB948D0F8110000EE100AE6
:10228000B5EEC00AF1EE10FA0BDDB448D0F811003B
:1022900000EE100AF7EE000A80EE801A8DED091AA2
:1022A00003E0B7EE000A8DED090A002444E104EBD7
:1022B0004400AB4901EB8000C08800282BDB04EB15
:1022C000440001EB8000C088B0F5805F23DA002075
:1022D0001DE004EB4401A24A52F8212000F5805190
:1022E00032F8111000EE101AB8EE400ADFED9D0A28
:1022F00020EE200A07A901EB8401D1ED000A20EEAF
:10230000200A05EB800181ED000A411C88B2B0F57E
:10231000805FDEDB20E000201BE004EB4401904AFC
:1023200052F8211031F8101000EE101AB8EE400AE1
:10233000DFED8C0A20EE200A07A901EB8401D1ED24
:10234000000A20EE200A05EB800181ED000A411C05
:1023500088B2B0F5805FE0DB4FF00008042007F0A2
:1023600095FC804642464FF480512846FFF734FAE8
:1023700000200DE005EB800191ED000AD8ED000A88
:1023800030EE600A05EB800181ED000A411C88B245
:10239000B0F5805FEEDB404607F0E0FE29462046C0
:1023A00000F076FC4FF4805231462846FEF762FD7D
:1023B00000200690C4EBC4006B4901EB800206AB21
:1023C0004FF480513046FFF79FF9C4EBC4006649D3
:1023D00001EB8000021D4FF480512846FFF77AFD83
:1023E0004FF0000A4FF4804007F050FC8246002076
:1023F00017E005EB800191ED000A20EE000A05EBE5
:102400008001D1ED000A20EE200A05EB8001D1ED1C
:10241000000A20EE200A0AEB800181ED000A411C2F
:1024200088B2B0F5805FE4DB05AA4FF480515046D6
:10243000FFF7D2F9504607F091FEC4EBC4004A49B9
:1024400001EB800090ED010A20EE000AC4EBC4000D
:1024500001EB8000D0ED010A20EE200AC4EBC4009D
:1024600001EB8000D0ED010A20EE200ADDED050A27
:1024700080EE801AC4EBC40001EB800080ED041AEA
:102480004A464FF48051084600F0F4FD33462A4690
:102490004FF48051084600F08DFD32464FF48051D4
:1024A000084600F0B9FDC4EBC4012F4A02EB8101DC
:1024B00088612A48D0F819008DE8C1002748D0F873
:1024C000153001221103084600F00CFEC4EBC400D5
:1024D000254901EB800000F108024FF48051384695
:1024E000FFF7F8FC1D48D0F821008DE8C1001B481B
:1024F000D0F81D300222D102084600F0F3FD06ABF1
:1025000004AA4FF480513846FFF7FEF806AB03AA41
:102510004FF480513846FFF7A1F99DED040ADDED37
:10252000030A30EE600AC4EBC4000F4901EB8000DF
:1025300080ED030A601CC4B2032CFFF6B8AE284637
:1025400007F00CFE304607F009FE384607F006FE9D
:10255000484607F003FE0AB0BDE8F08790C4FF1FAD
:10256000F8C0FF1FFF3F4E3D20C1FF1F10B50446BE
:10257000394890F824003949085C00EB400036499E
:1025800051F8200091F82410344A515C01EB4101CC
:10259000314A02EB8101C98820F81140104690F8B9
:1025A00024002E49085C00EB4000114601EB80003E
:1025B000C088401C91F82410284A515C01EB41016D
:1025C000254A02EB8101C880104690F82400234977
:1025D000085C00EB4000114601EB8000C08891F8D8
:1025E00024101E4A515C01EB41011B4A02EB8101A0
:1025F0008988490090FBF1F201FB1200164991F81D
:102600002410164A515C01EB4101134A02EB81018F
:10261000C8801046C08BB0F5805F02D01046C08BDA
:1026200070B90D48C18B408A814209D10A48408A5D
:102630000949C988884203D10221042003F046FFDA
:10264000054890F824000549085C054921F8104028
:1026500000F0A2FB10BD0000F8C0FF1F5CB5000039
:102660000000FF1F00BF00BF00BF00BF00BFBFF3DF
:102670004F8F00BF00BF00BF0948006800F4E06052
:1026800008490843001D0649086000BF00BF00BF9D
:10269000BFF34F8F00BF00BF00BF00BF00BFFDE70B
:1026A0000CED00E00000FA0570B504460D462078F8
:1026B0007E2810D1A178E07801EB0021A81F81428B
:1026C00009D12946204602F06AFE012803D1294695
:1026D000204606F091F970BD10B50024A648B0F868
:1026E000500084B222460021032003F0D2F8A24811
:1026F00090ED0E0ADFEDA10A20EE200ABCEEC00A22
:1027000010EE100A84B222460121032003F0C1F822
:10271000994890ED0F0ADFED990A20EE200ABCEEF1
:10272000C00A10EE100A84B222460221032003F0F0
:10273000B0F8914890ED100ADFED900A20EE200AE3
:10274000BCEEC00A10EE100A84B2224603210846ED
:1027500003F09FF8884890ED110ADFED880A20EE1B
:10276000200ABCEEC00A10EE100A84B222460421F0
:10277000032003F08EF8804890ED120ADFED7F0A07
:1027800020EE200ABCEEC00A10EE100A84B22246E7
:102790000521032003F07DF8774890ED130ADFED63
:1027A000770A20EE200ABCEEC00A10EE100A84B2AE
:1027B00022460621032003F06CF86F48008B84B298
:1027C00022460A21032003F064F86B4890ED000ACA
:1027D000DFED6A0A20EE200ABCEEC00A10EE100AF5
:1027E00084B222460B21032003F053F8624890ED97
:1027F000010ADFED620A20EE200ABCEEC00A10EEEC
:10280000100A84B222460C21032003F042F85A48F1
:1028100090ED020ADFED590A20EE200ABCEEC00A54
:1028200010EE100A84B222460D21032003F031F885
:10283000514890ED030ADFED510A20EE200ABCEE6C
:10284000C00A10EE100A84B222460E21032003F0C3
:1028500020F8494890ED040ADFED480A20EE200AEE
:10286000BCEEC00A10EE100A84B222460F210320EB
:1028700003F00FF8404890ED050ADFED400A20EE26
:10288000200ABCEEC00A10EE100A84B222461021C3
:10289000032002F0FEFF3848808E84B222461421C5
:1028A000032002F0F6FF344890ED070ADFED330A0B
:1028B00020EE200ABCEEC00A10EE100A84B22246B6
:1028C0001521032002F0E5FF2B4890ED080ADFED0B
:1028D0002B0A20EE200ABCEEC00A10EE100A84B2C9
:1028E00022461621032002F0D4FF234890ED090A66
:1028F000DFED220A20EE200ABCEEC00A10EE100A1C
:1029000084B222461721032002F0C3FF1A4890ED3B
:102910000A0ADFED1A0A20EE200ABCEEC00A10EE09
:10292000100A84B222461821032002F0B2FF124896
:1029300090ED0B0ADFED110A20EE200ABCEEC00A72
:1029400010EE100A84B222461921032002F0A1FFE2
:10295000094890ED0C0ADFED090A20EE200ABCEED2
:10296000C00A10EE100A84B222461A21032002F097
:1029700090FF06F059F810BD20C1FF1F0000C842AB
:1029800070B500255248057A2A460021022002F03F
:1029900080FF002408E04E48055D611C2A460220A5
:1029A00002F077FF601CC4B2082CF4DB4848D0F872
:1029B000110000EE100ADFED470A20EE200ABCEEFF
:1029C000C00A10EE100A85B22A460921022002F040
:1029D00060FF3F48D0F8090000EE100ADFED3D0A25
:1029E00020EE200ABCEEC00A10EE100A85B22A467C
:1029F0000A21022002F04DFF3548D0F80D0000EE0C
:102A0000100ADFED340A20EE200ABCEEC00A10EEF8
:102A1000100A85B22A460B21022002F03AFF2C4808
:102A2000B0F8150085B22A460C21022002F031FFD1
:102A30002748B0F8190085B22A460D21022002F07D
:102A400028FF2348B0F81D0085B22A460E21022037
:102A500002F01FFF1E48B0F8210085B22A460F2160
:102A6000022002F016FF1A48D0F8250000EE100AE6
:102A7000DFED180A20EE200ABCEEC00A10EE100AA4
:102A800085B22A461021022002F003FF104890F878
:102A900029502A461121022002F0FBFE0C4890F832
:102AA0002A502A461221022002F0F3FE084890F82C
:102AB0002B502A461321022002F0EBFE044890F826
:102AC0002C502A461421022002F0E3FE70BD0000C3
:102AD00090C4FF1F0000C8420120014908707047E0
:102AE0000600FF1F38B5002000906A460021022032
:102AF00002F0A4FE012803D1BDF80000634908726A
:102B000000240CE0611C6A46022002F097FE0128B6
:102B100003D1BDF800005D490855601CC4B2082C03
:102B2000F0DB6A460921022002F088FE01280DD15F
:102B3000BDF80000642190FBF1F000EE100AB8EE41
:102B4000C00A10EE100A5149C1F811006A460A2164
:102B5000022002F073FE01280DD1BDF800006421AF
:102B600090FBF1F000EE100AB8EEC00A10EE100A69
:102B70004649C1F809006A460B21022002F05EFEB8
:102B800001280DD1BDF80000642190FBF1F000EEAA
:102B9000100AB8EEC00A10EE100A3C49C1F80D0048
:102BA0006A460C21022002F049FE012804D1BDF83A
:102BB00000003649C1F815006A460D21022002F0D6
:102BC0003DFE012804D1BDF800003049C1F81900CC
:102BD0006A460E21022002F031FE012804D1BDF820
:102BE00000002A49C1F81D006A460F21022002F0A8
:102BF00025FE012804D1BDF800002449C1F82100B8
:102C00006A461021022002F019FE01280DD1BDF8FC
:102C10000000642190FBF1F000EE100AB8EEC00A4B
:102C200010EE100A1949C1F825006A461121022048
:102C300002F004FE012804D1BDF80000134981F818
:102C400029006A461221022002F0F8FD012804D171
:102C5000BDF800000D4981F82A006A4613210220C0
:102C600002F0ECFD012804D1BDF80000074981F80D
:102C70002B006A461421022002F0E0FD012804D155
:102C8000BDF80000014981F82C0038BD90C4FF1F39
:102C90002DE9F04104460D463048007801285BD10B
:102CA0000027D4B9002615E005EB860090ED000A58
:102CB000DFED2B0A20EE200ABCEEC00A10EE100A4F
:102CC00087B206F6340081B23A46032002F0E1FDF5
:102CD000701C86B2B6F5FA6FE6DB012C1BD100261C
:102CE00016E005EB860090ED000ADFED1D0A20EEF0
:102CF000200ABCEEC00A10EE100A87B241F20400AE
:102D0000304481B23A46032002F0C3FD701C86B203
:102D1000B6F5FA6FE5DB022C1DD1002615E005EBB8
:102D2000860090ED000ADFED0E0A20EE200ABCEED0
:102D3000C00A10EE100A87B206F1640081B23A466A
:102D4000032002F0A6FD701C86B2B6F5FA6FE6DB32
:102D500000200249087000BFBDE8F0810600FF1F97
:102D60000000C84210B507A1002003F0FBF905F0F0
:102D70006DFE012000F006FE00F090F800F03EF835
:102D800010BD00004150505F53616D706C655F492C
:102D90006E69740D0A00000010B5164890F8240002
:102DA000401C144981F82400084690F824000321AF
:102DB000B0FBF1F201FB12000E4981F82400084635
:102DC00090F824000C49085C20B1012806D00228A4
:102DD0000CD107E0052000F04FF808E0072000F0D4
:102DE0004BF804E0062000F047F800E000BF00BF09
:102DF00010BD0000F8C0FF1F5CB5000010B500F06A
:102E0000B1FD10BD10B500F0B5FD10BD10B500BF8F
:102E10004FF082701149486400BF114800F0F8FF7C
:102E20000F4908680F49086000BF0F49087900F092
:102E300011FE0D49C87901F10802002100F0EEFDF4
:102E4000094BDA789978587801F036F8074801F09C
:102E5000B7F807480749086010BD0000008004402B
:102E600038B500001400FF1F24B5000030B5000085
:102E7000000E27070800FF1F1CB504460094002021
:102E80008DF8050001208DF804006A4600210248F3
:102E9000FFF786F91CBD000000B0034010B586B0F6
:102EA0003D483E4A02EB10410A68012383401A4321
:102EB0000A6000BF00220121394802F05EFF0022B3
:102EC0000521374802F059FF00220621344802F05C
:102ED00054FF03A8FFF7DAF800208DF80C00022059
:102EE0008DF80D0000208DF80E008DF80F000320E6
:102EF0008DF8100004208DF8110001208DF81200CB
:102F000000208DF813008DF8140003A92548FFF761
:102F1000EFF82448FFF74CF801212248FFF750F959
:102F20002148806940F019001F498861012030B1B3
:102F30001C49096A41F040011A4A116205E0194929
:102F4000096A21F04001174A116200BF272001F0F1
:102F5000D7FC27200621002804DB0A07130E134A9A
:102F6000135406E00A07140E114A00F00F031B1F4A
:102F7000D45400BF0520019000208DF809000120E5
:102F80008DF8080001AA00210648FFF709F905F0AD
:102F900091FD06B010BD00000C0038100070044018
:102FA00000C0044000B003400080044000E400E0A2
:102FB00018ED00E02DE9F04104460F4615461E4687
:102FC000002014E005EB800191ED000A1049096929
:102FD00001EBC00181ED000A9FED0E0A0C490A6960
:102FE0004100491C02EB810181ED000A401CA04216
:102FF000E8D30748012300220169FDF793FFE200AF
:10300000034801693046FDF71FFBBDE8F081000071
:1030100050C3FF1F000000007CB504460E46154655
:103020001348224601692846FEF7CEFA012013E034
:103030000F49096901EB8001D1ED000A610800EE3A
:10304000101AB8EE400A80EE801A0949096901EBAE
:10305000800181ED001A401CB0EB540FE8D36108E9
:10306000034A6B46106901AAFEF74EFB00987CBD2F
:1030700050C3FF1FF0B5174B1A61B0F5806F06D033
:10308000B0F5006F0CD0B0F5805F1CD111E0114B92
:10309000114E96E8B000F66883E8B000DE6017E0F5
:1030A0000C4C0E4D95E8C800ED6884E8C800E5605A
:1030B0000EE0084E0A4FD7E90045D7E90237C6E9C6
:1030C000023730C604E0034E034FB8CFB8C600BF86
:1030D00000BFF0BD50C3FF1FE0020100F00201007D
:1030E000000301002DE9F05F2DED0C8B80460C46AE
:1030F00091461E46DDED168ADDE917BAB8FBF4F0FD
:1031000000EE100AB8EE400AB0EE408A9FEDF90AD0
:1031100028EE000AB0EE409A0025012009EE900A40
:103120004FEA880006F0B2FD054600EE106AB8EEE0
:10313000400AC0EE080A10EE907A3846FDF730FBE0
:1031400041EC1C0BB0EE4C0AF0EE6C0A04F03CFEB5
:10315000B0EE40BAF0EE60BA51EC1B0BFDF733FB5A
:103160000AEE100AB8EE680AC0EE080A10EE907A6D
:103170003846FDF715FB41EC1C0BB0EE4C0AF0EEA7
:103180006C0A04F021FEB0EE40BAF0EE60BA51ECE9
:103190001B0BFDF718FB0AEE900A00272EE000EE4D
:1031A000107AB8EE400A29EE000A05EB870080EDA0
:1031B000000A4846FDF7E7FA41EC1C0B05EB8700D7
:1031C00090ED000A10EE101A0846FDF7E9FA41ECFE
:1031D0001D0BB0EE4C1AF0EE6C1AB0EE4D0AF0EE8C
:1031E0006D0A03F0C9FFB0EE40BAF0EE60BA51ECE0
:1031F0001B0BFDF7E8FA45F827007F1CB7EB540FCF
:10320000CDD3012000EB54072FE0381B00EE100A4D
:10321000B8EE400A20EE090A05EB870080ED000AAF
:103220004846FDF7B0FA41EC1C0B05EB870090ED2A
:10323000000A10EE101A0846FDF7B2FA41EC1D0B19
:10324000B0EE4C1AF0EE6C1AB0EE4D0AF0EE6D0ACC
:1032500003F092FFB0EE40BAF0EE60BA51EC1B0BF7
:10326000FDF7B1FA45F827007F1CA742CDD3E20055
:10327000A14908695946FDF7E7F9012028E09E4970
:10328000096901EBC00191ED000A05EB8001D1ED68
:10329000000A80EE201A9849096901EBC00181ED0E
:1032A000001A95490A694100491C02EB810191ED20
:1032B000000A05EB8001D1ED000A80EE201A8E494C
:1032C0000A694100491C02EB810181ED001A401C92
:1032D000611E8142D3D8284606F040FFB9F1020FA3
:1032E00068D100EE106AB8EE400AC0EE080A10EE8F
:1032F000907A3846FDF754FA41EC1C0BB0EE4C0ABC
:10330000F0EE6C0A04F060FDB0EE40BAF0EE60BA88
:1033100051EC1B0BFDF757FA0AEE100AB8EE680ADB
:10332000C0EE080A10EE907A3846FDF739FA41EC03
:103330001D0BB0EE4D0AF0EE6D0A04F045FDB0EE47
:1033400040CAF0EE60CA9FED6D0B53EC102B51ECB0
:103350001C0BFDF7A6F941EC1B0BFDF734FA0AEE46
:10336000900A002020E06449096901EBC00191ED59
:10337000000AB1EE400A6049096901EBC00181ED24
:10338000000A5D490A694100491C02EB810191ED87
:10339000000AB1EE400A58490A694100491C02EB93
:1033A000810181ED000A401CA042DCD3554809EEA2
:1033B000900A5FE000EE106AB8EE400AC0EE080A1C
:1033C00010EE907A3846FDF7EBF941EC1C0BB0EEAD
:1033D0004C0AF0EE6C0A04F0F7FCB0EE40BAF0EEE6
:1033E00060BA51EC1B0BFDF7EEF90AEE100AB8EECD
:1033F000680AC0EE080A10EE907A3846FDF7D0F958
:1034000041EC1C0BB0EE4C0AF0EE6C0A04F0DCFC54
:10341000B0EE40BAF0EE60BA51EC1B0BFDF7D3F9F9
:103420000AEE900A00201EE03349096901EBC00151
:1034300091ED000AB1EE40DA2F490A694100491CBA
:1034400002EB810191ED000A2B49096901EBC001F2
:1034500081ED000A28490A694100491C02EB8101FB
:1034600081ED00DA401CA042DED34FF47A7009EE01
:10347000900A00BF002012E09FED230A1E4909694F
:1034800001EBC00181ED000A9FED1F0A1A490A698C
:103490004100491C02EB810181ED000A401C00EE55
:1034A000100AB8EEC00AB4EEEA0AF1EE10FAE3D35D
:1034B000BDEECA0A10EE100A12E09FED130A0E4983
:1034C000096901EBC00181ED000A9FED0F0A0A496D
:1034D0000A694100491C02EB810181ED000A401C90
:1034E000A042EAD3044801231A460169FDF71AFDF8
:1034F00000201EE0DB0FC94050C3FF1F000000008A
:103500000000004040420F00000000000C49096923
:1035100001EBC00191ED000AF8EE690A20EE200AE5
:10352000F0EE000A20EE200A0AEB800181ED000A8D
:10353000401CA042EAD3BDEC0C8BBDE8F09F00001C
:1035400050C3FF1F0EB5002002900190009012485A
:1035500001F06EFA02AA04210F4801F033FA01AA21
:1035600001210D4801F02EFA6A4600210A4801F0B7
:1035700029FA0AA1002002F0F5FD0198820A03460B
:103580000CA1002002F0EEFD0098820A034616A16D
:10359000002002F0E7FD0EBD74C1FF1F0D0A205090
:1035A000466C61736820496E666F726D6174696FF5
:1035B0006E3A20000D0A20546F74616C2050726FB7
:1035C0006772616D20466C6173682053697A653A51
:1035D000092564204B422C204865783A2028307811
:1035E0002578290D0A0000000D0A2050726F6772BD
:1035F000616D20466C61736820536563746F72203F
:1036000053697A653A092564204B422C2048657835
:103610003A20283078257829200D0A0010B5034675
:10362000002000BF03E01C5C0C54441CA0B290427C
:10363000F9DB10BD70B5ADF5805D04460D4616464C
:103640004FF480516846FDF718F84FF480526946F0
:103650002046FFF7E3FF324629466846FCF7F4FFB1
:10366000012080F3108800BF094B0203214609485E
:1036700001F05CF94FF480536A462146054801F099
:1036800025FA002080F3108800BF0DF5805D70BD25
:103690006B66656B74C1FF1F10B500F065F8FFF72E
:1036A00051FF02A1002002F05DFD10BD6273702089
:1036B000696E69740D0A000070B50024002004468C
:1036C0004AE004EB4401264A52F83100254A02EB55
:1036D00010410A68012383401A430A6000BF04EBCB
:1036E00044031F4D05EBC303586804EB440305EB8B
:1036F000C303D96804EB440305EBC3031A7C50F8F9
:10370000213062F30A2340F8213000BF04EB440368
:1037100005EBC30303F1110204EB440305EBC30300
:10372000D96804EB440305EBC303986801F09EFCE1
:1037300004EB440305EBC3035A7D04EB440305EBA0
:10374000C303D96804EB440305EBC303986801F095
:10375000ABFC601CC0B20446012CB2DB70BD0000A3
:1037600060B500000070044010B5002000F03EFA83
:10377000044622462FA1002002F0F4FC012000F0B4
:1037800035FA0446224631A1002002F0EBFC02206B
:1037900000F02CFA0446224631A1002002F0E2FC9F
:1037A000042000F023FA0446224632A1002002F051
:1037B000D9FC062000F01AFA0446224633A1002064
:1037C00002F0D0FC0B2000F011FA0446224636A18C
:1037D000002002F0C7FC0C2000F008FA0446224644
:1037E00038A1002002F0BEFC0D2000F0FFF90446D5
:1037F00022463CA1002002F0B5FC0E2000F0F6F9B4
:10380000044622463DA1002002F0ACFC132000F04B
:10381000EDF9044622463FA1002002F0A3FC082057
:1038200000F0E4F9044622463FA1002002F09AFC91
:1038300010BD00006B434C4F434B5F436F726553A9
:103840007973436C6B3A25640D0A00006B434C4F4F
:10385000434B5F506C6174436C6B3A25640D0A00F6
:103860006B434C4F434B5F427573436C6B3A25641B
:103870000D0A00006B434C4F434B5F466C6173680D
:10388000436C6B3A25640D0A000000006B434C4FFB
:10389000434B5F506C6C466C6C53656C436C6B3A7D
:1038A00025640D0A000000006B434C4F434B5F4DF5
:1038B0006367466978656446726571436C6B3A2547
:1038C000640D0A006B434C4F434B5F4D6367496E79
:1038D0007465726E616C526566436C6B3A25640D5B
:1038E0000A0000006B434C4F434B5F4D6367466CCF
:1038F0006C436C6B3A25640D0A0000006B434C4F1F
:10390000434B5F4D6367506C6C30436C6B3A25647E
:103910000D0A00006B434C4F434B5F4C706F436C80
:103920006B3A25640D0A00006B434C4F434B5F4FCD
:103930007363304572436C6B3A25640D0A000000D6
:1039400010B5074801F010FB00BF0548C06C0449E2
:10395000486000BF0121024801F0FCFA10BD0000E0
:103960000080034010B50121014801F0F3FA10BDB9
:103970000090034010B5024801F0F6FA10BD0000B7
:103980000090034010B5044614B1012C06D102E0AA
:1039900005F0D2F803E005F051F900E000BF00BFE8
:1039A00010BD10B5044624B1012C05D0022C09D15C
:1039B00005E005F069F906E005F068F903E005F0B7
:1039C00067FA00E000BF00BF10BD00007CB50446F0
:1039D0000E46154624B1012C03D0022C15D113E05C
:1039E00014E02A4631460A48FCF72EFE08480090AB
:1039F00001954FF48041074802F0C4FF6A4606492A
:103A0000044803F0E5F801E000E000BF00BF7CBD22
:103A100024C2FF1F00B00640D8C1FF1F70B5064684
:103A20000C461546304600F029FA2946204600F09B
:103A30008FFA0748007820F0C0000549087000BFE1
:103A400003488079C0F381000328F9D1002070BDBC
:103A5000004006400349097860F3C501014A11702E
:103A600070470000004006400021427802F01F022B
:103A700011430C4A11718378527963F30402094BA4
:103A80005A711A461279037843F040031A43054BE2
:103A90001A7100BF034A927902F04002002AF9D05D
:103AA000704700000040064000B510480068C0F3B1
:103AB000814020B102280DD0032811D10DE000F083
:103AC0002FF9B0F5004F02D14FF4004000E0002084
:103AD000014607E00648016804E04FF47A7101E00E
:103AE000002100BF00BF084600BD00000070044078
:103AF0001800FF1F10B500F069F8044634B100F05B
:103B00002DF9B4EBD00F01D8204610BD0020FCE702
:103B10002DE9F04100F0E6F8044614B92046BDE86E
:103B2000F08116480078C0F3C205EC401348407895
:103B3000C0F301171148007B00F0030607B10EB176
:103B4000022E19D1082D14D2DFE805F0040506076E
:103B500008090B0F00BF00BF00BF00BF00BF640912
:103B600009E01420B4FBF0F405E00C20B4FBF0F401
:103B700001E0002400BF00BF2046D0E7004006401F
:103B800070B51048407800F0020020B90D488079E7
:103B900000F0200008B1002070BD00F017F80446C6
:103BA0000CB92046F8E70748C078C0F3411505482E
:103BB000C078C609044800EB850030F81600604361
:103BC000EAE7000000400640C8B5000010B505480F
:103BD0008079C0F3001010B9FFF79AFF10BD0248BA
:103BE0000068FBE7004006400C00FF1F70B505466B
:103BF000142D4AD2DFE805F00A4914491E49282C41
:103C00004549493034383C494949404200F0A6F81A
:103C10002049496C012202EB1171B0FBF1F436E04E
:103C200000F09CF81B49496CC1F30361491CB0FBCF
:103C3000F1F42CE000F092F81649496CC1F303410D
:103C4000491CB0FBF1F422E000F0C6F804461EE087
:103C5000FFF72AFF04461AE0FFF74CFF044616E080
:103C600000F01CF8044612E0FFF78AFF04460EE05D
:103C700000F092F804460AE0074C08E04FF47A742A
:103C800005E000F04DF8044601E0002400BF00BF4D
:103C9000204670BD00800440006CDC0210B5054871
:103CA000007800F0020008B9002010BD00F004F810
:103CB000FBE70000004006400748807900F0010063
:103CC00010B90648006870470348007AC0F3420103
:103CD00003480068C840F6E7004006400C00FF1F9C
:103CE0001000FF1F0A49097B01F0030121B10129DE
:103CF00005D0022908D105E00649086806E0064912
:103D0000086803E0054801E0002000BF00BF7047DD
:103D1000004006401400FF1F1800FF1F006CDC026B
:103D20000448007800F0800010B103480068704734
:103D30000020FCE7005006401400FF1F014649F632
:103D40009702914201D8002005E0034A914201D830
:103D5000012000E00220704700127A0010B50D49E2
:103D60008979C1F3810444B1012C09D0022C0AD015
:103D7000032C0BD100F010F80AE0FFF701FF07E079
:103D8000FFF79AFF04E0FFF7ADFF01E0002000BF5E
:103D900000BF10BD0040064010B50C48807900F00F
:103DA000400008B9002010BD00F012F80446074892
:103DB000007900F01F00401CB4FBF0F40348407988
:103DC00000F01F00183044432046ECE70040064056
:103DD00010B5FFF787FF10BD10B50B494968C1F357
:103DE000014121B1012905D0032908D105E0FFF7E0
:103DF000C7FE06E0FFF7D0FF03E0044801E0002023
:103E000000BF00BF10BD000000800440006CDC0259
:103E100070B504462068FFF791FF054615482279E2
:103E2000017821F00F011143017000BF00BF01783C
:103E300021F0A001A2791143017000BF0E48407823
:103E400020F03C00302101EA051108436179084364
:103E500009494870607958B10648007800F0800040
:103E600030B100BF0448807900F002000028F9D08A
:103E700070BD0000005006400040064010B50146ED
:103E80000C48007B00F00300884201D0012200E0D2
:103E900000220848007B61F30100064C20733AB110
:103EA00040F2DC5300E000BF181EA3F10103FAD179
:103EB000002010BD00400640F0B50346234880793D
:103EC000C0F381042148807900F001051F48007A81
:103ED000C0F34206B2421FD0012D13D1012C04D0F1
:103EE0001A48007800F0020060B11848407820F0CD
:103EF0000100164F787000BF1448807900F001006F
:103F00000028F9D11148007A20F02F000E2707EA87
:103F1000420738430D4F38720C48407861F3000077
:103F20000A4F78703846007820F003001843387044
:103F3000012C02D003F0020030B100BF03488079A9
:103F400000F001008842F9D10020F0BD0040064099
:103F500030B505460C461948407820F00200174954
:103F600048700846007820F0C40040F080000870D7
:103F700000BF1248807900F01C000828F9D10F48D2
:103F8000407920F040000D49487100BF0B4880790E
:103F900000F020000028F9D12046FFF765FD074812
:103FA000407940F040000549487100BF03488079DE
:103FB00000F020000028F9D0002030BD004006406D
:103FC000094A416851640178526861F31142064B15
:103FD0005A6000BF4178054A126861F39342034B6F
:103FE0001A6000BF70470000008004400070044069
:103FF00030B502460B464FF6FF70002112E0555CCB
:10400000684000240AE000F0010525B14AF20105EC
:1040100085EA600000E04010651CACB2082CF2DBC1
:104020004D1CA9B29942EADB30BD000010B506492B
:10403000086800F0CFF900BF00BF00BFBFF34F8F8B
:1040400000BF00BF00BF10BD70C3FF1F10B5024806
:1040500000F0C0F910BD0000A8C1FF1F10B506494F
:10406000886A00F0B7F900BF00BF00BFBFF34F8FF1
:1040700000BF00BF00BF10BD70C3FF1F10B50649D1
:10408000C86A00F0A7F900BF00BF00BFBFF34F8FA1
:1040900000BF00BF00BF10BD70C3FF1F10B50649B1
:1040A000086B00F097F900BF00BF00BFBFF34F8F50
:1040B00000BF00BF00BF10BD70C3FF1F10B5064991
:1040C000486B00F087F900BF00BF00BFBFF34F8F00
:1040D00000BF00BF00BF10BD70C3FF1F10B5064971
:1040E000886B00F077F900BF00BF00BFBFF34F8FB0
:1040F00000BF00BF00BF10BD70C3FF1F10B5064951
:10410000C86B00F067F900BF00BF00BFBFF34F8F5F
:1041100000BF00BF00BF10BD70C3FF1F10B5064930
:10412000486800F057F900BF00BF00BFBFF34F8FD2
:1041300000BF00BF00BF10BD70C3FF1F10B5064910
:10414000886800F047F900BF00BF00BFBFF34F8F82
:1041500000BF00BF00BF10BD70C3FF1F10B50649F0
:10416000C86800F037F900BF00BF00BFBFF34F8F32
:1041700000BF00BF00BF10BD70C3FF1F10B50649D0
:10418000086900F027F900BF00BF00BFBFF34F8FE1
:1041900000BF00BF00BF10BD70C3FF1F10B50649B0
:1041A000486900F017F900BF00BF00BFBFF34F8F91
:1041B00000BF00BF00BF10BD70C3FF1F10B5064990
:1041C000886900F007F900BF00BF00BFBFF34F8F41
:1041D00000BF00BF00BF10BD70C3FF1F10B5064970
:1041E000C86900F0F7F800BF00BF00BFBFF34F8FF2
:1041F00000BF00BF00BF10BD70C3FF1F10B5064950
:10420000086A00F0E7F800BF00BF00BFBFF34F8FA0
:1042100000BF00BF00BF10BD70C3FF1F10B506492F
:10422000486A00F0D7F800BF00BF00BFBFF34F8F50
:1042300000BF00BF00BF10BD70C3FF1F01460020BC
:1042400006E0054A52F820208A4200D102E0401CD4
:104250000028F6D000BF7047E8B5000070B50546ED
:104260002846FFF7EBFF064951F82040054901EBCE
:10427000144001680122A2401143016000BF70BDDB
:10428000ECB500000070044070B504460D462046B1
:1042900000F01AF828B129462046094A12689047CA
:1042A00004E029462046074A1268904700BF00BF35
:1042B00000BFBFF34F8F00BF00BF00BF70BD000045
:1042C0001C00FF1F2000FF1F01460868C00F704739
:1042D00000BFEFF31081084672B67047017C01F011
:1042E0000F01826891760022816801F58051037C7C
:1042F00001EB43118A83816801F58051037C01EB56
:1043000043118A61C16819B1002141748174C1747B
:10431000704700002DE9F04705460F461646182164
:104320002846FCF7AAF9AF602E74384600F042F830
:10433000804600F0D5FE8246A8EB0A0006EB001985
:10434000164840F82950164901EB0811885710F11A
:10435000800F00D10EE00146002909DB01F01F03A8
:1043600001229A404B099B0003F1E023C3F800218E
:1043700000BF00BFA86800F58050297C00EB411405
:1043800000202060A080E080A060E0602061A0822A
:10439000E082A061A083E083BDE8F08770C3FF1FC7
:1043A000F8B50000002181700121417000210170E9
:1043B000C17070470146002006E0054A52F82020EF
:1043C0008A4200D102E0401C0028F6D000BF7047AE
:1043D000F0B500002DE9F0470446207CA168C877BD
:1043E000E06840B9206830B1002301222046D4E9BA
:1043F0000051A84747E0A06800F58050217C00EB01
:104400004110D0F81880A06800F58050217C00EBA6
:104410004110808BC0F3C019E068A8EB00084FEA98
:104420005817B9F1000F01D0FEB206E00FB1781EA7
:1044300002E094F91400401EC6B294F91100B04293
:104440000AD194F9130094F91410884202D194F916
:10445000135009E0002507E094F91100351A002DEA
:1044600002DA94F91400054470B26074E07C401BD9
:1044700040B2E074206828B12B464A462046D4E971
:1044800000C1E04700BFBDE8F08700002DE9F04122
:1044900005460C462846FFF78DFF144951F8207059
:1044A000134901EB174001680122BA401143016032
:1044B00000BF2E6826F05606A078042101EA80008D
:1044C0006178102202EA011108432178402202EAB1
:1044D00081110843E178022202EA4101084340F0D9
:1044E000800006432E60BDE8F0810000F4B50000B6
:1044F0000070044010B5146800F5805303EB4113BD
:104500001C60948800F5805303EB41139C80D48891
:1045100000F5805303EB4113DC80946800F5805371
:1045200003EB41139C60D46800F5805303EB411307
:10453000DC60146900F5805303EB41131C61948A1D
:1045400000F5805303EB41139C82D48A00F580531D
:1045500003EB4113DC82946900F5805303EB4113B4
:104560009C61002400F5805303EB41139C83948BE2
:1045700000F5805303EB41139C83D48B00F58053EB
:1045800003EB4113DC8310BDF0B505ACF0CC436008
:1045900001600561B6FBF5FCC0F814C0042A14D014
:1045A00004DC012A07D0022A1ED109E0102A11D00A
:1045B000202A19D113E04FF0000C80F808C014E055
:1045C0004FF0010C80F808C00FE04FF0020C80F8AB
:1045D00008C00AE04FF0040C80F808C005E04FF076
:1045E000050C80F808C000E000BF00BF042C14D008
:1045F00004DC012C07D0022C1ED109E0102C11D0B4
:10460000202C19D113E04FF0000C80F809C014E001
:104610004FF0010C80F809C00FE04FF0020C80F859
:1046200009C00AE04FF0040C80F809C005E04FF023
:10463000050C80F809C000E000BF00BF27B1012FC2
:1046400014D0022F1BD108E00FFA84FCA0F80CC094
:104650000FFA82FCA0F80AC012E04FF0000CA0F89C
:104660000CC00FFA82FCA0F80AC009E00FFA84FC23
:10467000A0F80CC04FF0000CA0F80AC000E000BF8A
:1046800000BFF0BD016042607047F0B504460D46C2
:1046900016461F4604F5805101EB45103A46314657
:1046A00000F007F9F0BD70B50446E06828B9207C39
:1046B00000F00F00A168C87626E0A06800F58050E1
:1046C000217C00EB4115607D40F080006075A86999
:1046D000C8B1FFF7FDFD0646A068C068227C012135
:1046E0009140084060B9A88B00F0800018B1A88BF9
:1046F00000F0100020B1207C00F00F00A168C87607
:10470000304600F0F8F800BF70BD2DE9F05F0446B8
:104710008A46A06800F58050217C00EB4116E068D5
:1047200088BBB08B38B1B08B00F0800018B941F273
:10473000ED30BDE8F09F217C00235246A068FFF7D2
:10474000A4FFA06800F58050217C00EB4110808B15
:1047500040F00801A06800F58050227C00EB421078
:104760008183A06800F58050217C00EB4110808B94
:1047700040F00201A06800F58050227C00EB42105E
:1047800081830020D5E7FFE7FFF7A2FD834694F978
:10479000130094F91410884205DB584600F0ABF87A
:1047A00041F2EC30C5E794F91250E07C401C40B275
:1047B000E074681C4FFA80F894F91400404501D168
:1047C0004FF0000884F81280584600F094F80DB1BC
:1047D000681E02E094F91400401E4FFA80F9E16867
:1047E00001EB451000F056F8E16801EB451000229E
:1047F000514600F05EF8E06800EB4510808B40F019
:104800000200E16801EB45118883E06800EB481085
:10481000E16801EB451188614D4529D0E06800EB66
:104820004910808B20F0080040F01007E06800EB92
:1048300049108783E06800EB4510B169884213D1C5
:10484000B08B20F0080040F01007B783B08B00F069
:10485000100008B100206CE7E06800EB4810B16977
:10486000884205D1002064E7B06908B1002060E704
:10487000E36803EB4512217CA068FFF73BFE607DF7
:1048800000F0800020B1207C00F00F00A168C87605
:1048900000204EE7002101608180C1808160C160FD
:1048A00001618182C1828161082181830021C183EC
:1048B000704710B50B6803604B6803610B7A4FF4C7
:1048C000E06404EA03234C7A04F007042343C38022
:1048D0004B8983808B8983820B6983608B8AC38237
:1048E0008B8AC38332B18261838B23F0080343F048
:1048F0001003838310BD00BF80F3108800BF704792
:10490000014611F1800F01D10120704708460028AF
:1049100009DB00F01F0301229A4043099B0003F1C9
:10492000E023C3F8002100BF0020EEE72DE9F04F9F
:1049300089B083460C469046994601AA21465846BE
:1049400004F050FB424621465846059B04F0FEFA0F
:1049500007461FB1384609B0BDE8F08F484604F05D
:104960000FFB07460FB13846F5E7019C029D04EBAB
:104970000800461EB6FBF5F005FB106030B1B6FB33
:10498000F5F000F1010A0AFB05F0461E0021584629
:1049900004F0BDFA0CE024F07F4040F010600849BC
:1049A0004860584604F0F6FA074607B102E02C4486
:1049B000B442F0D900BF584604F0A2FA3846CAE71C
:1049C0000000024010B5034603B10AB9042010BD2F
:1049D0000A2927D2DFE801F005080B1114171A1D68
:1049E0002023D86810601FE0586810601CE01C7A13
:1049F0005868B0FBF4F0106016E0187A106013E00D
:104A00001868106010E0002010600DE05869106018
:104A10000AE09869106007E0186A106004E0586ABC
:104A2000106001E06A20D2E700BF0020CFE700005D
:104A300010B504460CB9042010BD164AD26CC2F35E
:104A400003610F2902D14FF4802003E0124A32F8AB
:104A50001120900200222260606001222272120363
:104A6000E26000206061A061204604F061FA58B164
:104A700000200A4908600A4848600A4888600846D9
:104A8000E061204600F010F800202062606200BF64
:104A9000D2E700000080044038B6000030C4FF1F99
:104AA000B0C3FF1FF0C3FF1F70B504460CB1E0692F
:104AB00008B9042070BDE569686804F005FAA868C3
:104AC00004F0F2F9022028600020F3E72DE9F0411C
:104AD00088B080460D4614461E461CB9042008B016
:104AE000BDE8F0816A462946404604F07BFA32462A
:104AF00029464046039B04F029FA07460FB1384681
:104B0000EDE7009D0021404604F001FA20E001CCD1
:104B1000134988600398042805D125F07F4040F0B0
:104B2000C06048600AE00398082807D101CC0C490E
:104B3000C86025F07F4040F0E0604860404604F0E7
:104B400029FA074607B105E0039805440398361A89
:104B5000002EDCD100BF404604F0D2F93846BEE753
:104B60000000024010B50C4800F0A4F800F40070FA
:104B700088B105F04FF94FF40071074800F036F89E
:104B8000054800F0F1F90221042001F037F803A1F3
:104B9000002001F0E7FA10BD0080034046544D307C
:104BA0005F49525148616E646C65720D0A000000E5
:104BB00010B5084800F07EF800F4007020B14FF402
:104BC0000071044800F012F803A1002001F0CAFAB5
:104BD00010BD00000090034046544D315F495251D2
:104BE00048616E646C65720D0A00000001F4007289
:104BF0001AB1026822F08002026001F480721AB1D8
:104C0000426F22F08002426701F480621AB1C26EE4
:104C100022F08002C266026DCBB29A4302657047F1
:104C200030B5CAB2002301F400741CB1046844F02A
:104C30004004046001F480741CB1446D44F08004AD
:104C400044650FE002F001044CB100F10C0454F88B
:104C5000334044F0400500F10C0444F833505C1C30
:104C6000E3B25208002AEDD130BD0021017041703D
:104C700080214160002181600173417301218173B2
:104C80000021016141610176417681767047000023
:104C900001460422002006E0054B53F820308B42E9
:104CA00000D102E0401C9042F6D300BF70470000E4
:104CB00058B60000014600200A6802F080020AB1DE
:104CC00040F400704A6F02F080020AB140F4807034
:104CD000CA6E02F080020AB140F480600A6DD2B25E
:104CE000104370472DE9F04105460C46207900F04D
:104CF000F00010B90120BDE8F0812846FFF7C8FF99
:104D0000234951F82070234901EB17400168012223
:104D1000BA401143016000BF207B602101EA4010CE
:104D2000401C40F0040068652846616800F034F8D3
:104D30002846A16800F088F8207800F00700286075
:104D40006078C02101EA8010A17E4FF4007202EA6F
:104D500041210843C5F88400207EE865607E28670D
:104D60006069E866A07BC02101EA8010217C01F027
:104D70003F010843A866EE6F26F47066607B4FF42F
:104D8000706101EA00200643EE670020B3E70000EF
:104D900068B600000070044070B5002400220023B3
:104DA000836D43F00803426E00BF07E0E5006D1D10
:104DB000012606FA05F52A43651CECB21E4EB042E8
:104DC00001D1082610E01D4EB04201D102260BE0B1
:104DD0001B4EB04201D1022606E01A4EB04201D16C
:104DE000082601E04FF0FF3606EBD676B4EB660FEF
:104DF000DCDB4266D0F88C2042F0B40201F0800582
:104E00000DB142F4F85201F0700585B142F4F81288
:104E100001F010050DB143F0100301F020050DB1B4
:104E200043F0200301F040050DB143F040038365DA
:104E3000C0F88C2070BD000000800340009003404B
:104E400000A0034000900B4030B50A46002300212B
:104E5000D0F88C4044F00404C0F88C40416E00BF90
:104E600006E0DC00641D012505FA04F421435B1C07
:104E7000334DA84201D1082510E0324DA84201D19E
:104E800002250BE0304DA84201D1022506E02F4D4E
:104E9000A84201D1082501E04FF0FF3505EBD5759B
:104EA000B3EB650FDDD34166D0F89810244CA042D7
:104EB00001D1082510E0234CA04201D102250BE0CE
:104EC000214CA04201D1022506E0204CA04201D194
:104ED000082501E04FF0FF350124AC40641EA143DA
:104EE000174CA04201D1082510E0164CA04201D178
:104EF00002250BE0144CA04201D1022506E0134C20
:104F0000A04201D1082501E04FF0FF350124AC405B
:104F1000641E14402143C0F89810816D02F480741F
:104F200014B141F0020101E021F0020102F4007429
:104F300014B141F0010101E021F00101816530BDB2
:104F4000008003400090034000A0034000900B400D
:104F5000816070470A46016821F01801182303EAAE
:104F6000C203194301607047016821F01801016014
:104F70007047000008B50020009013A101F0F2F87E
:104F800000241FE04FF0FF336A461946002006F068
:104F9000C3F8009800F0010060B110A1002001F0FA
:104FA000E1F8002005F048F80446224611A100204F
:104FB00001F0D8F8009800F0020018B115A1002007
:104FC00001F0D0F8DEE70000466972737420546186
:104FD000736B20456E7465720D0A0000466972732A
:104FE00074205461736B204C6F6F70696E670D0A8B
:104FF000000000004669727374205461736B207264
:10500000616D61696E20686561703A2564202525AF
:105010000D0A00004669727374205461736B204658
:10502000495253545F5441534B5F54455354325F7C
:105030004556454E540D0A001CB500240648032170
:1050400000238022CDE9001004A1074805F064FE8A
:10505000044620461CBD0000CC00FF1F4669727349
:1050600074205461736B0000754F0000F0B5134657
:105070001A782AB9426901248C40A243426112E0A5
:105080000E465C78324625461DB901279740876059
:1050900002E001279740476000BF00BF426901243A
:1050A0008C4022434261F0BD30B50B461946144690
:1050B0001CB901258D40856002E001258D404560C9
:1050C00000BF30BD30B50B46194614461CB901254A
:1050D0008D40856002E001258D40456000BF30BDF8
:1050E00010B50448FFF766F90349087008460078D0
:1050F00010BD0000008000402700FF1F08B5002001
:10510000009020A101F02EF8002439E04FF0FF3389
:105110006A461946002005F0FFFF009800F00100E4
:1051200060B11DA1002001F01DF8002004F084FFF3
:10513000044622461DA1002001F014F8009800F05A
:10514000020018B121A1002001F00CF8009800F035
:105150000400A8B1642000F017FE24A1002001F093
:1051600001F8FDF74FFE04F0B1FF01F0CBFA04F0B7
:10517000D7FFFDF743FE642000F006FEFDF772FA4C
:10518000C4E7000048616C205461736B20456E7465
:1051900065720D0A0000000048616C205461736B59
:1051A000204C6F6F70696E670D0A000048616C20BB
:1051B0005461736B2072616D61696E206865617006
:1051C0003A25642025250D0A0000000048616C2066
:1051D0005461736B2048414C5F5441534B5F5445BD
:1051E0005354325F4556454E540D0A0048616C20B9
:1051F0005461736B20536176652053797374656DC8
:10520000204556454E540D0A0000000038B50446AE
:105210000D46012D02D0022D12D107E000230122FC
:1052200021460948006805F0A7FD0AE00020034672
:105230000122214600900448006805F01FFE00E0AE
:1052400000BF00BF38BD0000E800FF1F1CB50024F0
:105250000648042100230A02CDE9001004A10748F2
:1052600005F05AFD044620461CBD0000E800FF1F63
:1052700048616C205461736B00000000FD50000019
:1052800003E002A1002000F06DFFFAE748617264BC
:105290004661756C745F48616E646C65720D0A00DE
:1052A00010B503480168034800F01EF810BD000067
:1052B0003CC4FF1F0060064010B503484168034826
:1052C00000F012F810BD00003CC4FF1F0070064043
:1052D00010B503488168034800F006F810BD0000CF
:1052E0003CC4FF1F00600E4070B504460D46E078D8
:1052F00000F0100018B9A07800F0200028B129466D
:105300002046094A1268904704E029462046074A89
:105310001268904700BF00BF00BFBFF34F8F00BFB0
:1053200000BF00BF70BD00003000FF1F3400FF1F32
:1053300010B5074841680748074A1268904700BF00
:1053400000BF00BFBFF34F8F00BF00BF00BF10BD45
:105350003800FF1F00F002404400FF1F10B507484F
:1053600001680748074A1268904700BF00BF00BFA6
:10537000BFF34F8F00BF00BF00BF10BD3800FF1F3D
:1053800000F002404000FF1F70B504460E4615466F
:105390002A4631462046FBF757F9601970BD70B5B3
:1053A00002460B46002400210025511CD81E85B260
:1053B00003E011F8016B3019C4B2281EA5F10106F3
:1053C000B5B2F6D10878A04201D1012070BD4FF0EE
:1053D000FF30FBE770B50246002000230024531C79
:1053E000CD1EACB203E013F8016B3518E8B2251EF0
:1053F000A4F10106B4B2F6D170BD0000F0B5CDB095
:1054000000BF00BF0025002700200190444890F80D
:105410006A00C0EBC00000EB400041490844C1787D
:105420003F4890F86A00C0EBC00000EB40003C4AE7
:105430001044807801EB002086B2104690F86A0094
:10544000C0EBC00000EB4000114608444179104613
:1054500090F86A00C0EBC00000EB400010440079F7
:1054600001EB0020C4B2802C01DD4DB0F0BD2D4811
:10547000008BB04252DC31192A48408B81424DDC0E
:1054800000251BE0701981B201AA022000F0D6F9B4
:10549000012810D1BDF804000012032101EB4501E1
:1054A00002AA5054BDF80400C1B2032000EB45002D
:1054B000401C115400E0D8E7681CC5B2A542E1DBEE
:1054C000184840788DF80800154890F86A00C0EB3D
:1054D000C00000EB40001249084440788DF80900F4
:1054E0006006000E8DF80A00032000EB4400C1B2F4
:1054F00002A800F0F9F907463812032101EB440134
:1055000002AA5054032000EB4400401C175403200F
:1055100000EB4400811C02A800F0BCFA00BFA4E725
:1055200090B3022000B40220F0B5CDB000BF00BFA0
:105530000025002700200190444890F86A00C0EB45
:10554000C00000EB400041490844C1783F4890F852
:105550006A00C0EBC00000EB40003C4A1044807879
:1055600001EB002086B2104690F86A00C0EBC00044
:1055700000EB4000114608444179104690F86A005B
:10558000C0EBC00000EB40001044007901EB0020AC
:10559000C4B2802C01DD4DB0F0BD2D48008CB0426E
:1055A00052DC31192A48408C81424DDC00251BE039
:1055B000701981B201AA032000F040F9012810D12E
:1055C000BDF804000012032101EB450102AA50546A
:1055D000BDF80400C1B2032000EB4500401C11548B
:1055E00000E0D8E7681CC5B2A542E1DB1848407866
:1055F0008DF80800154890F86A00C0EBC00000EB79
:1056000040001249084440788DF809006006000EF9
:105610008DF80A00032000EB4400C1B202A800F09C
:1056200063F907463812032101EB440102AA5054E2
:10563000032000EB4400401C1754032000EB4400FF
:10564000811C02A800F026FA00BFA4E790B3022054
:1056500000B4022070B5CCB000BF002400BF002011
:105660000090364890F86A00C0EBC00000EB4000A4
:1056700032490844C178314890F86A00C0EBC00054
:1056800000EB40002D4A1044807801EB002085B2E9
:10569000104690F86A00C0EBC00000EB40001146D5
:1056A00008444179104690F86A00C0EBC00000EB56
:1056B00040001044007901EB002086B232462946B2
:1056C000002000F0E6F8012801D04CB070BD1C4865
:1056D00040788DF80400194890F86A00C0EBC000CB
:1056E00000EB40001549084440788DF80500280A71
:1056F0008DF80600E8B28DF807006A4629460020BA
:1057000000F09CF8BDF8000000128DF80800BDF80C
:105710000000C0B28DF80900062101A800F0E4F8ED
:10572000044620128DF80A00E0B28DF80B00082123
:1057300001A800F0AFF900BFC7E7000090B3022056
:1057400000B4022070B5CCB000BF002400BF002020
:105750000090384890F86A00C0EBC00000EB4000B1
:1057600034490844C178334890F86A00C0EBC0005F
:1057700000EB40002F4A1044807801EB002085B2F6
:10578000104690F86A00C0EBC00000EB40001146E4
:1057900008444179104690F86A00C0EBC00000EB65
:1057A00040001044007901EB002086B232462946C1
:1057B000022000F06EF8012801D04CB070BD1E48E8
:1057C00040788DF804001B4890F86A00C0EBC000D8
:1057D00000EB40001749084440788DF80500280A7E
:1057E0008DF80600E8B28DF807006A4629460220C7
:1057F00000F024F8BDF8000000128DF80800BDF894
:105800000000C0B28DF80900062101A800F06CF874
:10581000044620128DF80A00E0B28DF80B00082132
:1058200001A800F037F90121202000F0BDFB00BFE6
:10583000C3E7000090B3022000B402202DE9F0413C
:1058400004460D461646002734B1012C0AD0022C1E
:105850000ED0032C18D111E03146284603F026FC67
:10586000074612E03146284603F036FC07460CE0B6
:105870003146284603F046FC074606E031462846F6
:1058800003F056FC074600E000BF00BFB8B2BDE819
:10589000F0812DE9F04104460D461646002734B14B
:1058A000012C0AD0022C0ED0032C18D111E0314665
:1058B000284603F053FC074612E03146284603F021
:1058C00061FC07460CE03146284603F06FFC0746B2
:1058D00006E03146284603F07DFC074600E000BFA5
:1058E00000BF3846BDE8F08170B502460B464FF662
:1058F000FF71002411E010784140002508E001F01C
:105900000106491016B14AF201004140681C85B2F7
:10591000082DF4DB521C601C84B29C42EBDB0806B1
:10592000000C40EA112070BD10B5404890F86B00A3
:10593000002871DD3D4890F86A00C0EBC00000EB24
:1059400040003A49085C3A494978884237D1374A99
:1059500092F86A20C2EBC20202EB4202334B1A44B5
:10596000117D1A4692F86A20C2EBC20202EB420293
:10597000D01803F08EFA08BB00F0D2F82B4890F84C
:105980006A00C0EBC00000EB4000284908444078A2
:10599000032806D0042807D0052808D006280CD1F3
:1059A00008E0FFF72BFD09E0FFF7BEFD06E0FFF77B
:1059B00051FE03E0FFF7C6FE00E000BF13E01B4A04
:1059C00092F86A20C2EBC20202EB4202174B1A4461
:1059D000117D1A4692F86A20C2EBC20202EB420223
:1059E000D018FCF761FE114890F86A00401C0F497E
:1059F00081F86A00084690F86A0091F86C1090FBF4
:105A0000F1F201FB1200094981F86A00084690F89A
:105A10006B00401E81F86B00044890F86B00002872
:105A200003DD0121042000F0E9F810BD90B302204D
:105A300000B4022010B503F0E1FB03F00EFC03F00C
:105A400007FC00F019F800F02FF810BD10B504465F
:105A500007480078142809D2054801780078401CCE
:105A6000034A107003484454FDF76AFF10BD00005C
:105A7000C400FF1FA8CAFF1F0020054981F86B0062
:105A800081F8690081F86A00052081F86C00704790
:105A900090B3022070B504460D462A4621460120E7
:105AA000FDF794FF70BD00001248134948600021C3
:105AB000114801810121418110480F49C86000212E
:105AC0000D480182012141820D480B4948610021A6
:105AD00009480183642141830A480749C8610021BC
:105AE0000548018441F6641141840748007A02495F
:105AF00048707047C000FF1F00B40220C200FF1FA3
:105B000000800220C880022090C4FF1F10B501222F
:105B100004210248FFF7D6FA10BD000000F10F4043
:105B200010B5002204210248FFF7CCFA10BD000096
:105B300000F10F4008B500200090FFF77BFF14A193
:105B4000002000F00FFB002421E04FF0FF336A46F5
:105B50001946002005F0E0FA009800F0020060B15C
:105B600010A1002000F0FEFA002004F065FA0446BF
:105B7000224612A1002000F0F5FA009800F004007F
:105B800028B116A1002000F0EDFAFFF7CDFEDCE70A
:105B90004D6F64627573205461736B20456E74653C
:105BA000720D0A004D6F64627573205461736B202F
:105BB0004C6F6F70696E670D0A0000004D6F646274
:105BC0007573205461736B2072616D61696E20681A
:105BD0006561703A25642025250D0A004D4F444229
:105BE00055535F5441534B5F4441544150524F43CE
:105BF0004553535F4556454E540D0A0038B504468B
:105C00000D46012D02D0022D12D107E00023012202
:105C100021460948006805F0AFF80AE00020034675
:105C20000122214600900448006805F027F900E0B1
:105C300000BF00BF38BD0000D800FF1F1CB5002406
:105C40000648032100234FF48062CDE9001004A12F
:105C5000064805F061F8044620461CBDD800FF1F29
:105C60004D6F64627573205461736B00355B000087
:105C700010B54020054909688143044A116000BFFE
:105C800003A1002000F06EFA10BD00000060034088
:105C9000504442305F49525148616E646C65720DE8
:105CA0000A00000021B1026842F08002026003E0B5
:105CB000026822F08002026070470021017041708A
:105CC00081700F21C17000210171704701460020D1
:105CD00006E0054A52F820208A4200D102E0401C2A
:105CE0000028F6D000BF704778B600002DE9F041DB
:105CF00005460C462846FFF7E9FF194951F8207080
:105D0000184901EB174001680122BA4011430160B4
:105D100000BF2868144900EA010620784FF44021AA
